:400000000010002011000000650200006502000010B500F099FA00F02DF9C04610B50F4C23688022D20213432360182000F0C8FF22680B4B134023600A4A0B4B1A60132255
:400040000A4B1A6080221206094B1A60002323600849094A1160094A136010BD00010B40FFFFFBFF0600008004010B400802024008010B4010000C80000102400C020B40E9
:4000800010B572B600240FE01D486200131959000B00411889881A5AC31858880004104300F0DAF80134E4B2012CEDD9EE221202144B1A609922144B1A6099231B04134AB0
:4000C0001360134A1360134A117806230B43DBB213708022104B1A60C02212040F4B1A60D82212010E4B1A600A220E4B1A600E4A0E4B1A6002220E4B1A60FFF78FFF10BDBB
:40010000D41100000C0001401000014000500F4030500F4000700F400000044008000440080304400004044031040000080404401804044010B5064C2378002B07D1054BFE
:40014000002B02D0044800E000BF0123237010BD5001002000000000D0110000084B10B5002B03D00749084800E000BF07480368002B00D110BD064B002BFBD09847F9E7E3
:400180000000000054010020D0110000C80000200000000010B500F0EBFC10BD10B500F0F7FC10BD70B506000D0014000023138005E0F05C00F00AFD2388013323802388CC
:4001C000AB42F6D3002070BDF0B5474680B407000E001500114A5A43140000232B801033984612E000F0EAFC00280AD02B885A1C2A80FC1800F06CFD207000239846074C83
:4002000003E00A2000F0D2FE0A3C2B88B34201D2002CE7DA404604BC9046F0BD1027000010B50C4B1B68402B01D100F055FC012000F0A4FE00F066FD002803D08022054B33
:400240001A6002E04022034B1A6000F045FC002010BDC046C000002010B50A00002100F0AAFF10BD10B500F071FF03680C2B00D1FEE7FEE770B50F4E0F4D13E029686B6807
:40028000AC68002202E001C901C30432A242FAD1E868002202E0002102C304328242FAD11035013E002EE9D100F056FFFFF7B8FFFEE7C04601000000C412000010B50023AC
:4002C0000AE0032B03D89A000C49505800E00C4899000C4A885001332F2BF2D9FFF7D0FE094B1B68002B02D10022074B1A608022D205116801230B43136010BD00000000F5
:400300006502000000000020C000002070B500291FD00E00104A8B1BC45C00230CE015006540ED0704D552080C4D6A4092B200E0520864080133DBB2072BF0D9013EB6B2AB
:40034000002EE8D1D24392B2100280B2120A104300E0002070BDC046FFFF00000884FFFF30B5002307E01C182478E4B2CD5CAC4205D101339BB29342F5D3002000E002204D
:4003800030BDC0460047C04610B58022024B1A6000F0E8FD10BDC046C0000020F0B583B00D006B469E1DDA8001230B7048701400AA70130ACB70171DB9B22800FFF7A6FF5D
:4003C000E855631D000AE854A31D1722EA540734A1B2962332002800FFF7E4FE03B0F0BD70B505000E001400002802D0002000F0B7FD002005E0013CAB19E3181B7818181C
:40040000C0B2002CF7D170BD10B50C2863D88000404B1B589F464B06591ACB013E4A9446634401225CE04B06591ACB013B4A94466344042254E04B06591ACB01384A9446BE
:40044000634402224CE04B06591ACB01354A94466344042244E04B06591ACB01324A9446634401223CE04B06591ACB012F4A94466344012234E04B06591ACB012C4A94463E
:40048000634402222CE04B06591ACB01294A94466344022224E04B06591ACB01264A9446634402221CE04B06591ACB01234A94466344042214E04B06591ACB01204A9446AC
:4004C000634401220CE04B06591ACB011D4A94466344042204E0002000F042FD02220023012A02D11878C0B200E00020022A03D11978587800020843042A09D11A78587816
:40050000000210439A7812041043DB781B06184310BDC046E0110000C07F0000C17F0000C57F0000C97F0000D07F0000D17F0000D67F0000D27F0000D47F0000D87F00005E
:40054000DC7F0000E07F000010B50D4B1B68DB0602D400220B4B1A600A4B1B68802B0ED10022084B1A6000210220FFF74DFF002805D000210220FFF747FFFFF703FF10BD61
:4005800000030B40C000002070B5050001000320FFF73AFF441CE40129000420FFF734FF241829000320FFF72FFF421CD2010023002608E01078411EC9B2FD2900D8012640
:4005C0001B18DBB20132A242F4D35B42DCB229000120FFF719FF844203D1002E03D1062002E0062000E0002070BDC046F0B55F4656464D464446F0B4B64CA5440500FFF750
:40060000C9FD62B600239A4698460A240027002D01D1FF2300E02B00AF4A02A98C4662449621490052A8FFF7CFFD002D01D0013CE4B2002C01D00028E9D1002800D037E2E1
:40064000A54B02AA944663441B88062B24D952AA1278012A22D152A9CA78120289780A431700110007329A421AD896235B009A4218D87A1D52AB9E5C3202381D1E5C164350
:4006800006315B5C172B0FD181B252A8FFF73EFE86420BD100260AE0042608E0042606E0032604E0032602E0042600E00826002E00D098E152AB1A7993465A781300313B74
:4006C000D9B2142900D95CE18B008449CB589F464346012B00D088E1012F00D088E15B46002B00D087E15846FFF74EFF002800D084E15B465B065A469B1AD901784B9C464D
:400700006144382253A800F04DFD3822C9E14346012B00D075E1002F00D075E10020FFF733FF4342434152AA13710122B9E14346012B00D06BE1032F02D0832F00D069E122
:4007400052AA93791B02527913439946032F08D0FA1E4821FF3102AB9C46614407A800F021FD5B46002B00D057E118024844C0014B46FF2B00D90A26002E00D050E18022D8
:4007800007A9FFF7EDFD060000228AE14346012B00D047E1012F00D047E15B46002B00D046E1504B1B681B68DA0BD2B2934503D1DB09FF22134005E0934501D9002301E0D5
:4007C00080235B0052AA13711B0A5371FF2393710023D371042264E1342A0DD14346012B00D028E1032F00D028E14C32002107A800F0E1FC80239A464346012B00D020E1A1
:40080000022F00D820E107A85044FA1E4821FF3102AB9C46614400F0C5FC3B0053449BB2832B00D013E152AA93791B02527913439A46FF2B00D90A26002E00D00DE15B465E
:400840001802504480B2274B1B681A68D3099BB2520601D001339BB2834200D900E107A900F06CFA002800D100E100239A4680270A26002215E14346012B00D116E1042656
:4008800000220EE14346012B00D0F4E05346FB1896225200934200D9F0E007A850443A0053A900F07FFC5346FB189BB29A460022F7E0002F00D0E4E004AA0B4B03CB03C28A
:4008C00053AA04AB03CB03C200239A46013398460822E6E084FDFFFF6E02000014120000C07F0000CC000020681200004346012B00D0C9E0032F00D0C9E052AA93791B02FC
:400900005279134399465B4619024944C9014B46FF2B00D90A26002E00D0BBE080220020FFF75EFD030001905A4612024A4492B25946002911D1FF2A0FD10520FFF764FDEB
:40094000C0B2019B1B1ADBB2994600210620FFF75BFDC3B24A46D31ADBB25B4252AA137101229EE00020FFF70FFE002802D18022574B1A60FFF712FC00F0F4FA04260022EC
:400980008FE0544B1B689946002B00D184E04346012B00D083E002AB1A705F8053AE03960C22002104A800F006FC04AB9B460696190002A8C8475B469A882623FF339A42CA
:4009C00003D953AB0699994207D0069B002B01D1002A05D1049BDEB263E00E26002260E00E2600225DE000225BE00426002258E00426002255E00C26002252E00C26002257
:400A00004FE0042600224CE00426002249E00426002246E00426002243E00926002240E000223EE0042600223BE00426002238E00426002235E00426002232E00426002232
:400A40002FE0042600222CE00426002229E000239A4680270326002223E08027002220E000239A4680270A2600221AE000239A468027002215E00426002212E003260022B9
:400A80000FE0042600220CE00426002209E00426002206E0002204E00526002201E00526002252A93000FFF779FC01E000239A46002D00D1ABE54346012B00D1A7E59F234B
:400AC0009B009D443CBC90469946A246AB46F0BDC00000206C01002070B50020FFF754FD002801D0062400E00024134D2B681A68C03AC0210020FFF773FC6B681B78C01A12
:400B0000C0B24042C0B2834204D10B4B1B681B68002B02D1002000F023FA084B1B68402B01D0002C05D00022044B1A600020FFF75DFDFFF729FC70BDCC000020C0000020AC
:400B400010B500F09FF810BD10B500F0ADF810BD10B500F049F810BD10B5044A1368802109060B431360FFF7EBFF10BD0000064010B5064B1B78002B04D1FFF7E9FF0122D6
:400B8000024B1A70FFF7E8FF10BDC0467001002010B5FFF7D9FF044A13685B005B0813600022024B1A6010BD00000640880F0640014B18687047C04640030640024B1B68D5
:400BC0000F2018407047C04608030640044B1B680F221340082BF9D0024B18607047C0460802064040020640134A144B1A600023134A13601349144A1160144A14490A603B
:400C000007201449086014490B6006381349086013490A60134A1360134A1360134A1360134A1360134A1360134A1360134A13601268134B1A8070470B000002000006400C
:400C40004000064001000A004800064007000080000306400403064010030640440006400002064004020640880E0640C80E0640480F0640080F0640C80F0640880F0640D5
:400C80007201002005490B68F0229343603A13430B60034B1A88034B1A6070471000014072010020880F0640064A1368F0218B431360054B1A68E423DB001340034A138069
:400CC0007047C04610000140880F06407201002010B5FFF773FF002802D0FFF769FF01E0064B1868064A1368D821890011601B02D82292021340184310BDC04640030640CC
:400D0000C00F0640024B1868C00801231840704704040440024B1A68024B1A600020704708010B4074010020024B1A68024B1A60002070477401002008010B40F0B54746AC
:400D400080B4A6B00500002325932493FF2800D9EFE0002900D1ECE0802204A800F022FA022300200021002408E09A0002AE9259002A02D0891810431C000133212BF4D963
:400D8000002903D1002803D1002602E0002600E00126002E06D0A30002AA9F58002202A95A5000E00027664B02937F230393654B02AA1A606449654A1160C0461B681B0F69
:400DC0001B07F0221206934204D15E4B1B68FF2213400DE05B4B1B681B0F1B07A0221206934204D0574B1B68FF22134000E000232593259B002B00D09DE000F09FF90190D3
:400E0000FFF788FF2490259B002B25D1504A029202992A040A4302924A4A02A911604D484A490860C0461268120F1207F02109068A4204D1434B1B68FF2213400BE0414A12
:400E40001268120F1207A02109068A4203D03D4B1B68FF2213402593259B9846002B59D1002E57D08022002104A800F0A4F9A40002ABE750324B02937F230393314B02AADA
:400E80001A603149314A1160C0461B681B0F1B07F0221206934205D12A4B1B68FF221A4090460CE0274B1B681B0F1B07A0221206934204D0234B1B68FF221A4090464346E4
:400EC0002593259B002B25D1234A0292029A2D04154302951B4A02A9116020481B490860C0461268120F1207F02109068A4204D1144B1B68FF2213400BE0124A1268120F34
:400F00001207A02109068A4203D00E4B1B68FF2213402593249B002B07D1FFF705FF2490249B002B01D0249B2593019800F00AF901E004232593259826B004BC9046F0BD5D
:400F4000B6D70000080000400400008004000040B6D8000005000080B6D900000600008001BE7047034A13681B041B0C02490B43136070470CED00E00400FA0510B50400C0
:400F800006E0084B586800F0CFF8074B9C46644480231B029C42F4D8024B9868604300F0C3F810BDD40000200080FFFF10B5034B1B7B584300F0B8F810BDC046D4000020B6
:400FC000F0B557464E46C0B483B0040000F0B6F80190E71E2D2F74D83F4B1B78DBB29C4208D83E4B1B78DBB29A463D4B1B78DBB2994631E03B4B1B78DBB29C4208D83A4B22
:401000001B78DBB29A46394B1B78DBB2994623E0374B1B78DBB29C4208D8364B1B78DBB29A46354B1B78DBB2994615E0334B1B78DBB29C4208D8324B1B78DBB29A46314B80
:401040001B78DBB2994607E02F4B1B78DBB29A462E4B1B78DBB299462D4BDE5D2F2E09D92A2C07D919222B4B1A60052000F05CF8192503E0274B1D683F231D40B54206D92F
:40108000234BDA5D234B1A60052000F04DF81F4B9C4664442378DBB21F4A13601F4B52461A601F4B4A461A600520FFF77FFFB5420AD2174BDA5D174B1A60052000F034F83F
:4010C00002E00020FFF74CFF019800F03BF803B00CBC91469A46F0BDC0F1FF0FC1F1FF0FC2F1FF0FC3F1FF0FC4F1FF0FC5F1FF0FC6F1FF0FC7F1FF0FC8F1FF0FC9F1FF0F6F
:40110000CAF1FF0FCBF1FF0FCCF1FF0FCDF1FF0F701200002CFF0B4028FF0B401CFF0B4020FF0B40000000000230800804D0C0460138FDD1C046C046C0467047EFF3108075
:4011400072B6704780F310887047C046014B18687047C046480100200E4B70B500251E000D4CE41AA410A54204D0AB00F35898470135F8E700F094F8084B00251E00084CFF
:40118000E41AA410A54204D0AB00F35898470135F8E770BDAC120000AC120000AC120000B4120000002310B59A4203D0CC5CC4540133F9E710BD03008218934202D0197026
:4011C0000133FAE77047000080130000810000000000000000300F40000400400F400004D60400001604000026040000360400004604000056040000660400008604000009
:401200007604000096040000A6040000B6040000C60400000E0700008C07000082090000D8070000760800008209000084080000B2080000D8070000EC08000064090000CB
:40124000D006000082090000820900008209000082090000820900008209000082090000820900002E0700009311C804113C0101030405060708090A0B0C0E0F101112139E
:401280001415161718191B1C1D1E1F2021222325262728292A2B2E2F3031323334354300F8B5C046F8BC08BC9E4670475D010000BD020000F8B5C046F8BC08BC9E46704700
:4012C00035010000D8120000C800002088000000280000000000000000000000C8110000CC110000010000000000E02EC05D00001800000000366E01000000000000000097
:401300000000000000000000000000000000000000000000000000009E120000000000000000000000000000000000000000000000000000000000000000000000000000FD
:40134000000000000000000000000000000000000000000000000000E800002000000000000000000000000000000000000000000000000000000000000000000000000065
:40138000000000000000000000000000000000000000000000000000000000000000000000000000000000000000000000000000000000000000000000000000000000002D
:4013C00000000000000000000000000000000000000000000000000000000000000000000000000000000000000000000000000000000000000000000000000000000000ED
:4014000000000000000000000000000000000000000000000000000000000000000000000000000000000000000000000000000000000000000000000000000000000000AC
:40144000000000000000000000000000000000000000000000000000000000000000000000000000000000000000000000000000000000000000000000000000000000006C
:407FC000000000000000000000000000000000000000000001010000000000000000000000000000000000000000000000000000000000000000000000000000000000007F
:0200000490303A
:02000000229448
:0200000490402A
:200000000000000000000000000000000000000000000000000000000000000000000000E0
:0200000490501A
:0C000000000204C81193110104CE342743
:0200000490600A
:0100000001FE
:00000001FF