:400000000010002011000000310200003102000010B500F0E1F900F013F9000010B572B68024E40022000021264800F0C4FE22000021254800F0BFFEEE22244B12021A604C
:400040009922234B06211A609923224A1B041360214A224C1360224A182013780B4313708022204B1A60C0221F4B12041A60D8221E4B12011A600A221D4B1A601D4A1E4B7F
:400080001A6002221D4B1A6080222368D2021343236000F0A3FD2268194B1A4913402360194A1A4B1A601322194B1A608022194B12061A600023184A23601160174A1360F5
:4000C00010BDC04600300F4000400F400C0001401000014000500F4030500F4000010B4000700F4000000440080004400803044000040440310400000804044018040440FC
:40010000FFFFFBFF10000C800600008004010B400802024008010B40000102400C020B4010B5064C2378002B07D1054B002B02D0044800E000BF0123237010BD5001002037
:4001400000000000D00D0000084B10B5002B03D00749084800E000BF07480368002B00D110BD064B002BFBD09847F9E70000000054010020D00D0000C8000020000000008A
:4001800010B500F057FB10BD10B500F061FB10BD70B5002306000D00140023802388AB4205D2F05C00F072FB23880133F5E7002070BD0000F7B5114C07005C430023150074
:4001C0001026019113802B88019A934214D2002C12DB00F053FB002809D02B8800265A1C2A80FC1800F0D4FB2070044CEBE70A2000F0EAFC0A3CE6E73000FEBD1027000090
:4002000010B50A4C2368402B01D100F0D5FA012000F0C4FC00F0D6FB8023002800D14023236000F0C9FA002010BDC046C000002010B500F08BFD03680C2B00D1FEE7FEE708
:40024000F8B500250F49104B01394A1C14D000221F685C689E68A018B24203D0B858A0500432F8E70200DE68141AA64201D020C2FAE710330139E8E700F06EFDFFF7C0FF20
:40028000FEE7C04601000000300E0000002370B50C480D4C0D4D9A002100032B00D8A95801338150302BF6D1FFF7B8FE084B1A68002A00D11A6080220121D20513680B4382
:4002C000136070BD000000203102000000000000C0000020004700000A00F0B50C4B8C1A075D08241D0001267D405B08354202D0084D6B409BB2013CE4B27F08002CF1D166
:40030000013A92B2002AEAD1D84340BA80B2F0BDFFFF00000884FFFF00234118002A05D0013A881800781B18DBB2F7E718007047013810B50B2830D8C901494200F0F2FC36
:4003400006080A0C0E10141216191B20164B13E0164B16E0164B0AE0164B12E0164B0BE0164B09E0164B02E0164B00E0164BC91814E0164B05E0164BC9180878C0B211E0A7
:40038000144BC9180A7848788C780002230418430300C8781343000603E000210B7848780002184310BDC046C07F0000C17F0000C57F0000C97F0000D07F0000D17F000073
:4003C000D67F0000D27F0000D47F0000D87F0000DC7F0000E07F00000C4B10B51A68102313400B4A00D113601368802B0DD10024022021001460FFF79BFFA04205D02100EF
:400400000220FFF795FFFFF765FF10BD00030B40C0000020F8B5010006000320FFF788FF040031000420FFF783FF0134E4012718002431000320FFF77BFF25000130C0013E
:40044000B84209D203785A1ED2B2FD2A00D80125E418E4B20130F3E731000120FFF768FF6442E4B20623844203D16A4255416D422B401800F8BD0000F0B5B64CA544FFF711
:400480007FFE62B600231F000093962108ADFF2302AA49002800FFF78DFE0028F5D102AB1988062924D92A780423012A25D16E88F21D8A4256D8962149008A4252D8AA199C
:4004C0009279172A19D1F11889B2002902D02800FFF702FFAB195A791B7912021A43082382420AD140E0012F00D014E1012E01D0042302E00C23002C01D000240CE0200088
:40050000FFF788FF0C23002806D13822924909A800F048FC2300383402AA961C00200122211D6B7089B2230A34802A70AC70EB70814202D02800FFF7CFFE9EAB874A1B19B2
:400540009A181070864A000A9A181070854A07349B181722A1B21A70280096233200FFF717FE92E70323C8E76B782C79180031380B282FD97C4A1468002C25D0012F25D131
:4005800002AAD68005AE1371002109AB0C223000049300F010FC09ABB360310003A8A0472623B488FF339C4204D9B3681A0009AB9A4207D0B268002A01D1002C02D13368F4
:4005C000DBB2A9E70E2398E70523A5E7002705233C00A1E700F0B0FB0C001A00CEFFCEFF5300CEFF58006E0037007E008E0087FF012F00D08FE0002E00D079E73000FFF76A
:4006000009FF434243412B713300E1E7012F00D081E0012E00D06BE7002C00D068E7534B1B681B68DA0BD2B2DB09DBB2002A01D080235B002B711B0A6B71FF23AB710023A0
:400640000424EB7168E7012F65D1022E00D84FE71F21009A53AB981802ABF21EC91800F0A1FB009BF618B6B2832E50D102AB9E7F587F360206430096FF2E4FD938E0012F19
:4006800049D10023009300E7012F44D1009BF41896235B009C4200DD64E753AA9446009B32006344180009A900F07CFBA3B20093002322E7002E00D01AE705AB19002C4AAF
:4006C000012711CA11C109AA03CB03C208240096330021E7012F1ED1032E00D008E702AA02AB927F5B7F12021A430192FF2A43D90A2302E70020FFF78DFE002802D18022F2
:400700001C4B1A60FFF740FD00F03CFAF0E6002300930333F1E60027042359E7134B1B681A68D3099BB2520601D001339BB2009A2002101880B2984203D2002300930A336A
:40074000DBE653A900F046F90028F6D100900300D3E6C04684FDFFFFC07F0000ACFDFFFFADFDFFFFAEFDFFFF6C010020CC000020D40D0000C0000020019B2102C918C901F2
:4007800080220020FFF7C8FD0600002C0ED1019BFF2B0BD121000520FFF7CAFD2100361A0620FFF7C5FDF6B2361AF6B276422E7100230124B0E6C04670B50020FFF72AFE79
:4007C000431E98410624134D40422B6804401A68C021C03A0020FFF79FFD6B681B78181AC0B2834203D12B681B68002B02D1002000F0C6F9084B19681A00402901D0002CF3
:4008000003D000231360FFF737FE80221A6000F0B9F970BDCC000020C00000208021044A10B5136809060B43136000F08BF810BD0000064010B5054C2378002B03D100F048
:4008400033F801232370FFF7E9FF10BD7001002010B500F089F8044A13685B005B0813600022024B1A6010BD00000640880F0640014B18687047C04640030640024B186872
:400880000F2318407047C046080306400F2204490B681340082BFBD0024B18607047C0460802064040020640134A144B07201A600023134A13491360134A1160134A1449D0
:4008C0000A6014490860144906380B601349086013490A60134A1360134A1360134A1360134A1360134A1360134A1360134A13601268134B1A8070470B000002000006400D
:400900004000064001000A004800064007000080000306400403064010030640440006400002064004020640880E0640C80E0640480F0640080F0640C80F0640880F064018
:4009400072010020F021054A13688B4360390B431360034B1A88034B1A6070471000014072010020880F0640F021064A13688B431360054B1A68E423DB001340034A1380AD
:400980007047C04610000140880F06407201002010B5FFF773FF002802D0FFF769FF01E0064B1868D821064A890013681160D8221B0292021340184310BDC046400306400F
:4009C000C00F0640024B18680007C00F7047C04604040440F0B50024ADB0089403900994FF2800D9ABE0A14200D1A8E080220CA800F0D8F902222300210001940AAD900022
:400A00004059002802D00918034301920132222AF5D1002902D1002B00D093E0002702977F234D494D4C4E4E4E4A0A916B6025603260C046236806911B0F07920F2B04D03F
:400A400022680023120F0A2A01D02368DBB20893089B0493002B00D07BE000F05BF9424A424B116805901960049B04920993089B002B16D13E4A03990A920A9A09040A4338
:400A80003C490A922560354A3160C0462168090F0F2903D01168090F0A2901D01368DBB20893089D002D39D1002F37D0802229000CA800F080F9019B029A0AAF9B00DA51E5
:400AC000069B079A0A937F237B602760234B3260C0462268120F0F2A03D01A68120F0A2A01D01D68EDB20895089B002B16D1224A03990A920A9A09040A4320490A9227600A
:400B0000164A3160C0462168090F0F2903D01168090F0A2901D01368DBB20893099B002B09D1124A049912680A600993099B002B01D0099B0893059800F0F0F809E0042354
:400B4000089306E0019B01279B00EA58E950029266E708982DB0F0BDB6D7000008000040040000400400008008010B4074010020B6D8000005000080B6D900000600008061
:400B800001BE7047034A044913689BB20B4313607047C0460CED00E00400FA0570B5802504002D02064BAC4205D9586800F0A8F8044BE418F6E79868604300F0A1F870BD18
:400BC000D40000200080FFFF10B5034B1B7B584300F096F810BDC046D4000020F0B5050087B000F097F8EB1E049003932D2B5BD8304B1B789D4204D82F4B1C782F4BE4B2F5
:400C00001EE02F4B1B789D4204D82E4B1C782E4BE4B215E02D4B1B789D4204D82C4B1C782C4BE4B20CE02C4B1B789D4204D82B4B1C782B4BE4B203E02A4B1C782A4BE4B241
:400C40001B78EA1EDBB20193284B294F9A5C059302922F2A04D92A2D02D919263E6008E03F233E681E40029BB34205D2204B029A1A60052000F044F81B4B1E4AED182B7867
:400C80000520DBB213601C4B019A1C601B4B1A60FFF79AFF029BB34206D9059B039A05209B5C3B6000F02CF8049800F037F807B0F0BDC046C0F1FF0FC1F1FF0FC2F1FF0F44
:400CC000C3F1FF0FC4F1FF0FC5F1FF0FC6F1FF0FC7F1FF0FC8F1FF0FC9F1FF0FCAF1FF0FCBF1FF0FCCF1FF0FCDF1FF0FDC0D00002CFF0B4028FF0B401CFF0B4020FF0B40C6
:400D00000230800804D0C0460138FDD1C046C046C0467047EFF3108072B6704780F310887047C04602B4714649084900095C49008E4402BC7047C04603B471464908400035
:400D40004900095E49008E4403BC7047014B18687047C046480100200E4B70B500251E000D4CE41AA410A54204D0AB00F35898470135F8E700F04AF8084B00251E00084CB3
:400D8000E41AA410A54204D0AB00F35898470135F8E770BD180E0000180E0000180E0000200E0000002310B59A4203D0CC5CC4540133F9E710BD03008218934202D019708A
:400DC0000133FAE770470000000F0000AD000000000000009311C804113C0101030405060708090A0B0C0E0F101112131415161718191B1C1D1E1F2021222325262728299D
:400E00002A2B2E2F3031323334354300F8B5C046F8BC08BC9E467047490100008D020000F8B5C046F8BC08BC9E46704721010000400E0000C8000020880000002800000021
:400E400000000000C80D0000CC0D0000010000000000E02EC05D00001800000000366E010000000000000000000000000000000000000000000000000000000000000000DB
:400E80000A0E00000000000000000000000000000000000000000000000000000000000000000000000000000000000000000000000000000000000000000000000000001A
:400EC000E8000020000000000000000000000000000000000000000000000000000000000000000000000000000000000000000000000000000000000000000000000000EA
:400F000000000000000000000000000000000000000000000000000000000000000000000000000000000000000000000000000000000000000000000000000000000000B1
:400F40000000000000000000000000000000000000000000000000000000000000000000000000000000000000000000000000000000000000000000000000000000000071
:400F80000000000000000000000000000000000000000000000000000000000000000000000000000000000000000000000000000000000000000000000000000000000031
:400FC00000000000000000000000000000000000000000000000000000000000000000000000000000000000000000000000000000000000000000000000000000000000F1
:401000000010002011100000B53B0000B53B000010B5024B83F3088802F0ECFD00100020F7B572B60025062633006B435E4C0135E0181F5D4378427901791B023B43120263
:401040000A4319008378C0781B040B4300061843002104F029F9032DE6D1210080221231524804F018F900221100514EFC3538364F4B1433D0584B000700284009184800A9
:40108000013001333018AF43F31801900198834207D0581E0078C0190400187802332070F4E70432242AE3D1424A434B43491A60434A444B14201A609922434B434C1A6051
:4010C0009923434A1B041360424A1160424A43491360434A1360434A1360A022424BD2021A603C220B78934303430B703F4902300B7803430B704F213D4B713019603D49E2
:401100003D4B19600F213D4B196003233C490B603C4908603C496F380A603C490A60D8213B4A090113603B4A11603B4A13600E223A4B1A603A4A3B4B1A6002223A4B1A6036
:4011400080222368D2021343236003F02FFE2268364B374913402360364A374B1A601322364B1A60364B033A1A60364B10321A608222354B12061A600023344A23601160A8
:401180003349344A11603449344A1160344A1360344A354B1A600422344B1A60344B354A1360354A1360F7BDA468000080300F402469000000330003000001400000D030AA
:4011C00076EE00000C0001401000014000010B4000500F4008500F4010500F4001700F4020500F4030500F4038500F4000700F4000000440920DD800080004400C00044071
:401200000001044018010440000204401802044000030440080304401803044000040440B10500000804044018040440FFFFFBFF0D0000800600008004010B40080202401E
:401240001C0202403002024008010B4000000240170000804000024010000C80000102400C020B400401240080001040C00010403C00430000031A4040031A4010B5064C1A
:401280002378002B07D1054B002B02D0044800E000BF0123237010BD9001002000000000805D0000084B10B5002B03D00749084800E000BF07480368002B00D110BD064B1D
:4012C000002BFBD09847F9E70000000094010020805D0000C80000200000000010B5034B30220349002003F04BFB10BD580C0020005E0000034B044ADA62044A9A63044A95
:40130000DA6370470000002015300000B5300000F930000030B585B062B6284803F070F9274B1A681C001278032A01D8FFF7D6FF012003F079F9002003F044F90A2003F0EA
:401340002BFD012003F03EF90A2003F025FD03F065F82368002402255868C0B202F0E1FF02F0D0FC02F02CFD164B20001C7200F0CBFF022001F01EF801F056FB00F0F2FFA3
:40138000114B03940193029423000095B2220F490F4802F0F9F80F4BB4220F49019303942300029400950D4802F0EEF8FFF7A2FF02F0A0F9200005B030BDC046805E0000FC
:4013C000CC000020180C0020280C002080600000C1220000140C0020836000008929000010B572B6002003F01FF9FA20400003F0BDFC012003F018F9FA20400003F0B6FC8F
:40140000F0E710B572B6002003F00EF9FA20C00003F0ACFC012003F007F9FA20C00003F0A5FCF0E710B5040088470023200023606360237210BD0000F7B5C4430E00FA21A1
:40144000E417044089002000150003F0F7FDFA21890003F0D9FE20000F00054903F0EEFD009602003B002800024903F025FFF7BD40420F00A8620000F7B5050001911400BC
:40148000012700280ADB214EB54208DDFA212800890003F0D3FD01370500F5E70025FA212800890003F0CAFDFA2106008900280003F0AAFE0800092E06DC0A2103F0BEFDF2
:4014C00032000300124907E0632E09DC642103F0B5FD320003000F49200003F0EDFE04E032000D49200003F0E7FE012F05D10B49200003F003FF019904E00199200003F04C
:40150000FDFE0749200003F0F9FEF7BD3F420F00B3620000BC620000C5620000CA620000A063000010B5040001F0B8FA22000249FFF7A2FF10BDC046CC62000010B504004F
:4015400002F095FF0021012308000B4A02F098FF00230A4A1900042002F092FF0023084A1900062002F08CFF03F040F80023200023606360237210BDCE620000DC620000CE
:40158000EA6200007FB5040002F0DAF81B4B05001B681B4E984209D93378002B06D10222636001332270E060337025E07268AB1A322B01D9042319E012483232521B00234A
:4015C0002100006801F035FF0028F3D02378062B04D100216846FFF7B1FF0DE0012B0BD13378002B08D00023337004332370E5600820756003F06EFC7FBDC046D000002038
:40160000AC0100202C0C0020812307B5584303F015FD0300FF2210330092DBB2F83A1021062002F001FF07BDF0B5060099B0002000F06AFE022000F0BDFEAD4B30221968BC
:401640000CA803F028FEAB4B0FAA0C3313CB13C213CB13C213CB13C202F009FF0021012408000123A44A02F00BFFA44D00202C7202F0B4FB002002F053FB2300A04A002162
:40168000022002F0FDFE00239E4A2621062002F0F7FE002308AC237002952378012B03D02000FFF76FFFF8E76568012DF8D10CA801F046FB029B00201D7202F08FFB00202C
:4016C00002F02EFB2B00904A0021022002F0D8FE002204AB1A7004AC2378012B21D02000FFF750FF01F0CEF9159B08AAC01A169B864958430393FFF79FFE854908A803F0EE
:40170000FDFD002308AA2B21042002F0B9FE2378032BE0D1169B0393039A6368D3181693D9E76768012FDAD10025029B00201F7202F054FB119B10990393039A754B981AEC
:4017400003F07CFC02F0ECFA29000095A0230822042002F069FE29003B006F4A022002F08FFE2B00674A2621062002F089FE2570684D04AC2378012B21D02000FFF702FFB5
:4017800001F05EF9139B08AAC01A149B634958430393FFF751FE5E4908A803F0AFFD002308AA2B21042002F06BFE2378032BE0D1149B0393039A6368D3181493D9E76768F8
:4017C000012FDAD1029B00201F7202F007FB119B1099E81A0025039303F030FC02F0A0FAA023082229000420009502F01DFE3B00454A2900022002F043FE2B00414A2621EE
:40180000062002F03DFE257004AD2B78012B30D02800FFF7B7FE01F013F9139BC41A149B5C43039301F02EF9159B169AC31AE0178005800D53430419179AA412544303925C
:40184000E01808AA3149FFF7F7FD314908A803F055FD002308AA2B21042002F011FE2B78032BD1D1179B0393039A6B68D3181793CAE76B68012BCBD10024FF25029B210093
:401880001C7208220094A023022002F0CDFD2300234A0E21032002F0F3FD0095102307220F21062002F0C0FD0095922307229121062002F0B9FD81230722009310211033BA
:4018C000062002F0B1FD174A0CA8124901F05AFA0CA8104901F0AAFA134B30220CA9200003F04EF8300034607460347219B0F0BDCC000020005E0000F8620000180C002071
:4019000006630000146300001C630000CC620000A063000080841E002A630000386300003A63000009160000580C0020F0B589B0FF26050002F09BFD0222A02311000020E3
:40194000009602F071FD0123334A2021002002F097FD0023314A2621062002F091FD102305220F210420009602F05EFD9223009605229121042002F057FD294C23685B687C
:401980000393039B052208335B00DBB210210420009602F049FD812303990093083149001033C9B20522042004AF02F03DFD3800FFF7E8FD3B78032B04D0052B22D0012B33
:4019C000DFD10FE07B68039A9B183F2B01DD3F2302E0002B00DA00230393039BD8B202F0A0FCCEE77B68012BCBD123680422181D201A0C4B801003A902F0C2FF00232B60A1
:401A00006B6004E07B686B60074B2B60002328002B7209B0F0BDC046466300004F630000CC000020580C00202D1A000070B50E00FF25002186B0A0230400009508220800CA
:401A400002F0F2FC33002B4004D0012B08D1164A002102E001230621144A022002F010FD0123134A2021062002F00AFD002302AD2B702B78012B07D02800FFF783FD00F060
:401A8000B5FC0228F5D108E06B68012BF4D1002000F03AFC022000F08DFC0023200023606360237206B070BD646300005763000072630000F0B500248DB00700039102F00E
:401AC000D6FC08AB1C7008AB1A78012A00D1BAE0039B1868002827D003F03DFC0C230222584392331D1A6D08EDB26E1CF6B26133110000930020330002F096FC039A012391
:401B000012683100002002F0BBFC6121FF234942491B009300205F3BC9B2022202F084FC03230120049301E004230493C3B2049920005D00029303F081FAEDB2494A0028D7
:401B400000D1494A00232800942102F099FC0499200003F059FB039B651A2D015D190023069104350593029B29685800002921D0C3B20793059A069B07989E1A724272417D
:401B8000D6B233000A00022102F07AFC286803F0E2FB0C214143029B76425A1C52000131F6B2D2B2C9B200969423079802F03CFC103509E0029B00915A1C5300DAB2C0B295
:401BC000A023012102F030FC059B0298013301300593C3B20293059A049B9342C3D12B68214A002B01D00023204A9421062008AD02F046FC2800FFF7C5FC2B78032B09D026
:401C0000052B00D05FE76B687B60194B3B6000233B7223E06B681A19002B04DB230103991433CB180CE0D443E41714404BE71033180010380068611C002800D143E70C00A9
:401C40009442F4D13FE7099B012B00D040E7039B24011C193B00083407CC07C338000DB0F0BDC0467B630000A06300007D6300002D1A0000F0B51A4E8DB01A4F336806AD1F
:401C800003910400390028000293FFF713FF079B0193002B08D0390009AD54312800FFF709FF0A9B002B03D1230007CD07C313E0032004AAD11D0B70039B01225843019B31
:401CC0001818029B07301818301A074B02F058FE002323606360237220000DB0F0BDC046CC00002088600000580C0020F0B58BB0040002F0BCFB0222FF231100009300204F
:401D00005F3B02F091FB0123404A1421002002F0B7FB3F4B5E680393751C6A1E9541EDB2731C02D100F0BAFE06003000394903F06BFA761A2B00384A1E21042002F0A0FB29
:401D40000123364A6B405A21042002F099FB04AA33493000FFF790FB06AF002304AA3021062002F08DFB3800FFF70CFC3B78032B04D0052B10D0012BDCD104E001227B68DF
:401D800013405D40D6E77B68012BD3D1002D0ED1039A023B53602EE07B686360214B2360002323722FE0052B28D0012B1ED004AA1B493000FFF760FB04A803F0CCFA002561
:401DC00004AB181801380123057004AA3021062006AF02F055FB3800FFF7D4FB3B78032BE1D17A680B4B5343F618E0E77B68012BDDD1039B5E602560656003E07B686360F7
:401E0000084B2360257220000BB0F0BD7F630000180C0020A08601008B6300008E630000CC6200002D1A0000F0B58BB0040002F01EFB06AD2800FFF7A5FB287801380428A7
:401E40003CD803F067F8030C163B34006B68012B34D12200604B783323CB23C2B8E000F0C5FA022801D0022000E0002000F0A2FA24E001F065FC594BA968986028206E6808
:401E800003F052F8002800D101307043544B554D58432B68C01800F037FAFA212868890003F0CCF80100504800F040FB06E06B6863604E4B23600023237289E04C4B01257B
:401EC0001B68029301F03CFC444B9B68C01A632801D9029B1D7A474AED0053195B68464903928B4215D004A89847444904A803F005FA002104AA080002F0DFFA2E2104A8C6
:401F000003F009FA002813D10090782304226C210CE000267823062231003000009602F083FAA023062278210420009602F07CFA039B5D19AF686025380003F00CFA0C23D0
:401F400058436D42C6B2AD1BEDB20B3B3A002900002002F095FA232E06D800202B00009002227C2102F060FA00F040FA002809D10123234A7C21023002F082FA029E002518
:401F8000093614E00023042200937C21A033022002F04AFAF2E729005835002304AA0620EDB202F06DFA0136B02D00D141E73378039ADB00D31804A85B68984704A803F0C4
:401FC000CAF90528E7D10D4904A803F097F9E2E720000BB0F0BDC04608610000AC01002010270000180C0020926300002D1A0000CC0000208861000005200000A063000073
:402000008E63000010B5024903F09DF910BDC0469B63000010B5040000F0BAF922000249FFF72AFA10BDC0463863000010B5040000F012FD22000249FFF71EFA10BDC046CE
:402040003863000070B5040000F006FD050000F025FDFA2106008900280002F0EFFFFA2105008900300002F0E9FF220068430249FFF702FA70BDC046A263000070B50500C1
:4020800000F0EAFC061E11DD00F008FD0A234343094930001C0002F0D1FF0100200002F0CDFF2A000549FFF7E7F903E00449280003F049F970BDC046A0860100A863000011
:4020C000A463000010B5040000F020FE22000249FFF7D2F910BDC046AA63000010B5040000F01AFE22000249FFF7C6F910BDC046AD63000070B502F055FA060002F05AFA6C
:402100000422204C204BA256443399561F4D8E4202D12B7B013304E09B57934203D12B7B013B2B7326710C23EB56DA179B185340032B26DD63692B6101F00EFB2B69606146
:40214000C01A01D0206101E0012323610C230322EB560F48D9170A40D3189B10E3602100002308311A00006801F035F90C22094BAA56134004D50422013B5242134301335F
:402180002B7370BDD000002088610000AC0100202C0C00200300008070B588B002F067F90021012308002B4A02F06AF900232A4A1900022002F064F9284800F0A5F80820C7
:4021C00002F088FE0A24FA20013C8000E4B202F0CDFD002CF7D100F061FC2300204A21000500042002F04CF91E4800F08DF8082002F070FEFA20800002F0B8FDFA20800083
:4022000002F0B4FDFA20800002F0B0FD00F046FC0600200000F078F80A20AD1B6843092102F082FE6A461049FFF726F904AD23006A462100062002F023F92C702B78012B6F
:4022400003D02800FFF79EF9F8E76B68012BF8D108B070BDB0630000BC630000A0860100C763000040420F00D163000070B502F0B5F9104C0500E36998421AD00E4E636AA3
:40228000736101F069FAE5616062002D0FD001235B4223607369C01A02280AD921000023064818311A00006801F095F801E06430206070BDD0000020AC0100202C0C0020C9
:4022C0007FB510210022022000F0D5FF0B4B18600B4802F055F900210A4B0D001C0001AE30009847019B002B05D00822B2560299002AF4D0F1E729002300F0E72C0C002009
:40230000F5200000291E000070B5002804DB124B984202DD180000E00020104D104B18602B685C69041B00F0FDFC241AE343DB171C402B682000196902F080FE01F0F0FC23
:402340002D682000296902F05FFF0800E96802F075FE01F043FD70BD808D5B00CC000020180C00200122074B10B5524200201A605A60FFF7C9FF044B1B689A69034B1A6095
:4023800010BDC046180C0020CC000020000F1040014B18687047C046180C0020014B18787047C046D77F0000014B18787047C046D67F00000C4B10B504001870012809D067
:4023C000002807D002280DD1002001F055FD01F03BFD07E001F046FD200001F059FD062001F04AFD10BDC046F8000020014B18787047C046F800002070477047F0B585B086
:4024000001F082FE002528260190019B9D4238DA01F0F2FEFF2303400A2B0FD00D2B0DD0002B2CD01A4B1A00513211781A787143541C1C7001335B18985420E0144C2178AB
:4024400000291CD0270051373B78124A7343D31800225A54104B03A9186813000A7000F0BAFF012808D132003B780A495A4301338A181840626538700022054B1A700135B5
:40248000C3E7064B1A68064B1A6005B0F0BDC046C4010020C5010020300C0020CC0F0640C00F06408A1E030070B50020052A3AD81D4C1A7820007030805C41180239002093
:4024C0000D2930D8080002F025FD2007090B0D0F11131517191B1D1F083416E0103414E0183412E0203410E028340EE030340CE038340AE0403408E0483406E0503404E069
:40250000583402E0603400E06834216800200D78954208D1581C013102F00BFF03000020834200D1200070BDA86400000FB437B50F4CA06D002817D00023012225001900E1
:4025400052425C3500F075FF07AB069A51212800019303F007F8280001F062FE0023A06D1A00190000F0A8FE37BC08BC04B01847C401002010B50248FFF7D8FF10BDC04690
:402580009865000010B50378002B10D002F042FE002805DBFA239B0058430A4B984204DD09490A48FFF7C2FF01E0FFF7ADFEFA21074B8900186802F041FD01000548FFF76F
:4025C000B5FF10BD808D5B0070170000A2650000180C00209263000010B500F0A9FB0248FFF7A4FF10BDC046CD65000013B50E49019001A802F0B6FE0378002B03D10B481E
:40260000FFF794FF0FE002F005FE094C002803D101235B42236006E06423FA215843890002F082FC206013BDA0630000D2650000FC000020114B10B5186801F04FFA0100FA
:402640000F48FFF773FF0F4B186801F047FA01000D48FFF76BFF00F06FFC01000B48FFF765FF022001F00AFD0400032001F006FD210002000648FFF759FF10BD280C0020BB
:40268000FE650000140C002011660000276600003B66000070B58EB00190504901A802F061FE037806004E48002B00D192E07378002B00D085E04B4C3022256802A8290032
:4026C00002F0E9FD33786F2B16D006D8642B27D0692B1DD04F2B74D12AE0762B10D0782B36D0742B6DD1019802F094FD3E4A010002A800F047FB66E002A800F021FB62E063
:40270000019802F087FD010002A800F022FB5AE0019802F07FFD010002A800F026FB52E0019802F077FD010002A800F07FFB4AE001980378002B04D1A9692C48FFF7F6FEE1
:402740004AE002F067FD010002A800F0C1FB3AE0E9682748FFF7EAFE236826481969FFF7E5FE236824485969FFF7E0FE236823489969FFF7DBFE23682148D969FFF7D6FE22
:4027800023682048196AFFF7D1FE23681E48596AFFF7CCFE23681D48996AFFF7C7FE23681B48D96AFFF7C2FE00F04AF901001948FFF7BCFE00F066F901001748FFF7B6FE37
:4027C00007E0164806E0164B302202A9002002F0D7F81448FFF7AAFE0EB070BDA06300004C660000CC000020F923000097660000A2660000BC660000D6660000F066000014
:402800000A670000246700003E67000058670000726700008C670000A667000074660000580C0020CD6500001FB50748FFF77EFE6A4606231370002304481A00694600683E
:4028400000F03AFD05B000BDCD6500002C0C002010B5FFF7A3FD0400FFF7A6FD210002000148FFF763FE10BDC067000010B50378104C002B13D002F0CDFC002805DBFA23FC
:402880009B0043430C4A934204DD0C490C48FFF74DFE04E0002801D101235B426360FA216068890002F0CAFB01000648FFF73EFE10BDC046180C00200087930360EA00007D
:4028C000D2670000F667000010B50220FFF772FD0148FFF72BFE10BDCD65000010B5FFF7F3FF10BD10B50020FFF764FD0148FFF71DFE10BDCD650000F7B500F0ADF8070038
:4029000000F0CCF8040000F001FA050000F004FAFA2106008900200002F090FBFA2104008900380002F08AFB009601002B0022000148FFF7FBFDF7BD0068000010B5FFF771
:40294000DBFF10BD10B501000148FFF7EFFD10BD1368000013B50B49019001A802F002FD040002F0F8FC01002000FFF79BFD002803D12000FFF7E6FF02E04368019898479B
:4029800013BDC046A06300000121F0B5002285B0080000F070FC1D4D2860012000F0FAFC1B4CA0651B4801F05DFE01F099FB0195194B03AD1E6800F0C3FE184F3A6B831A99
:4029C0009E4205D200F0BCFE012338632B7009E0B618321A019800232900006800F029FD0028EFD028780328E2D802F093FA0502090BFFF781FFDBE7606DFFF7ABFFD7E74D
:402A0000074800E00748FFF791FDD1E7300C0020C4010020FD230000FC00002044020020306800003B68000010B501F00FFB034801F03EFE01F018FB10BDC046DD2A0000A8
:402A4000034B044A1B781068184100B27047C0460001002078020020074A084912780868074B10411B68DA691B6A801A5843C343DB1718407047C0460001002078020020A5
:402A8000CC000020034B044A1B785068184100B27047C046000100207802002070B50C4B0C4A1D680C4B50681B78AC6A18416B6AC01A4443FFF7D0FFC3179B059B0D18180B
:402AC000EB6A801258430019C343DB17184070BDCC0000207802002000010020F0B501267F4B8FB01B680193334200D1F2E07D4B1A7A1C00632A75D81B687B4F1D003A78A5
:402B0000002015415D1B01F0B9FA6368451918003A78256010411D1A300001F0AFFA4019724D60602B7A002B14D1FFF795FF0600FFF72EFCE368301A8010C0186C4B98426E
:402B400004DC6C4B984201DBE06000E0E3602868FFF7DAFB00F0F4FD25690600A84234D9FFF77AFF0700FFF799FF731B1D007D43029363690390ED185F49280002F0D4F9E7
:402B8000A3695D49C018A061280002F053FA6161FA213800890002F051FAFA2105008900039802F04BFA4543029B53495D43E369ED18280002F0B8F9236A4F49C0182062D1
:402BC000280002F037FA2661E161464B1B7A632B7CD10C2001F06AFAF021484A13688B4380396CE0652A6DD1FFF700FC050002285DD13E4C636801332BD0FFF7C9FB0028CC
:402C000027DDFFF74BFF6368984222DA0020FFF7D1FB0020FFF778FB06AC394B1022002120001F6802F040FB05236660237000F093FD0023E0601A002100380000F0CBFB5A
:402C4000304B04AA1868032304A913702B0000222BE0022001F012FA0400032001F00EFA241AE317E4185C40042C20DD0020FFF7A1FB0020FFF748FB0AAC214B1022002141
:402C800020001D6802F010FB0523237000F064FD0023E0601A002100280000F09CFB194B00221868022305A90B7000F094FB332001F0FCF9F021114A13688B4330390B43A1
:402CC000136003E0662A01D100221A72054A137A013313720C4B019A1A600FB0F0BDC0461C021A407802002000010020180C0020A08601006079FEFF407E050000001A406A
:402D00002C0C0020300C002010021A40014B98697047C04678020020014B186A7047C04678020020014BD8687047C046780200200022024B9A611A627047C046780200208A
:402D400010B50400FFF79EFE6062FFF779FEE06110BD70B504000D00FFF794FE636AC11A280002F06BF9A06270BD70B504000D00FFF766FEE369C11A280002F05FF92062FD
:402D800070BD0000F0B587B005920122244B06001A720800234902F051F90700002001F01DF8802300241B0601940293631C1E4D402118000393059B984738002C6000F034
:402DC000AFFF642000F0A2FDFFF73AFEF369C31A0420049300F0A4FF642000F097FDFFF72FFEF369049AC01A03007B439000181A391F02F023F9002804DC029B984201DD18
:402E000001940290039C402CD0D1019B0020B3612B60FFF779FA0022014B1A7207B0F0BD180C0020A5520000000F10400123F7B5244A040013720800234902F0FFF80700D8
:402E4000002000F0CBFF380000F06AFFC82000F05DFDFFF7F5FD1D4EE369C01A33681D6A4543042000F05CFFC82000F04FFDFFF7E7FDE369391FC01A33681B6A4343E81AFF
:402E8000019302F0DBF8206178432D1A65617F2000F0A4FFC820400000F038FDFFF7D0FDE3697F21C01A33681B6A5843019BC01A02F0C4F8E0600020FFF726FA0023014AA5
:402EC0001372F7BD180C0020A5520000CC000020014B816119607047000F1040072370B50400184201D09C43083400F021FC0E4B1A68002A04D11A0007210C328A431A606E
:402F00000A490B484A680025A418844204D8A24202D21D684C60AD1800F0A8FC002D01D1FEF76FFA280070BD9C0200201C0B00207708000070470000024B5868024B181AFB
:402F40007047C0461C0B0020780800000300012208334360C36003610023524282600360704700230361704743689A684B608A609A68516099600368086101330360704741
:402F800003000A6830B50833541C01D1036905E05C682568AA4201D32300F9E75A684A6091608B605960036808610133036030BD436882689A608268536003695968884259
:402FC00000D15A60002202611A68501E1860704772B6FEE7064A13681868203080F30988022080F314883FBCAE4662B600BDC046240B002010B58024031F64041C60043BFE
:4030000019600349043B1960143B40381A6010BDD12F000070470000FF210C4B09041A6810B50A43FF211A601A6809060A431A60074A084B1A600722074B1A600022074BBD
:403040001A60FFF7C7FF72B6FEE7C04620ED00E07FA9030014E000E010E000E0040100208022044B52051A60BFF34F8FBFF36F8F7047C04604ED00E072B6044A1368013371
:403080001360BFF34F8FBFF36F8F704704010020034A1368013B1360002B00D162B6704704010020EFF3108072B67047002080F310887047EFF309800E4B1A6820381060D9
:4030C000F0C044464D4656465F46F0C008B572B600F036FC62B60CBC116808681030F0C8A046A946B246BB4680F309882038F0C81847C046240B002010B5FFF7D3FF040023
:4031000000F036FB002803D08022034B52051A602000FFF7CCFF10BD04ED00E070B51500026C0400002A07D10568002D29D1406800F01EFD656024E0002D0CD1806802F091
:40314000AAF8A368226C9B186268A360934218D32368A36015E0C06802F09DF8236CE2685B422168D218E2608A4202D26268D318E360022D05D1A36B002B02D0A36B013B85
:40318000A363A36B0133A36370BD030070B51C680800002C0AD0D9681A6C5D688918D960A94200D3DC60D96802F075F870BD10B50400FFF761FFA36C002B0EDD636A002B71
:4031C0000BD02000243000F021FC002801D000F07FFCA36C013BA364EDE701235B42A364FFF756FFFFF748FF636C002B0EDD2369002B0BD02000103000F008FC002801D0D5
:4032000000F066FC636C013B6364EDE701235B426364FFF73DFF10BD70B504000D00FFF72BFF216CE36B22684B43D0185B1AD318E3600123606000205B42A063A2606364CE
:40324000A36485420BD12369834210D02000103000F0DCFB01280AD1FFF702FF07E020001030FFF773FE20002430FFF76FFEFFF70FFF012070BDF8B506000F00002801D1BE
:40328000002417E04C20FFF729FE041EF8D0380070430130FFF722FE051E206006D0E663276401212000FFF7B7FF03E02000FFF741FE2C002000F8BDF0B504001F000026EC
:4032C00085B000910192FFF7D7FEA36BE26B934201D3022F13D13A0000992000FFF71EFF636A002B07D02000243000F08FFB012801D1FFF7B5FEFFF7CBFE012048E0019D84
:40330000002D03D1FFF7C4FE280041E0002E02D102A800F0A9FBFFF7BBFE00F009FAFFF7ABFE636C013301D100236364A36C013301D10023A364FFF7ABFE01A902A800F02A
:403340009FFB00281ED1FFF797FEA66BE56BFFF79FFEAE4210D120000199103000F038FB2000FFF724FF00F081FA002801D00126A9E7FFF775FEFAE72000FFF718FF00F074
:4033800075FAF4E72000FFF712FF00F06FFA002005B0F0BD70B54C20FFF7A0FD041E18D001230025C363023B8563056443644560836405608560C5601030FFF7C7FD2000DA
:4033C0002430FFF7C3FD2B002A0029002000FFF773FF200070BDF7B5040016001F000191FFF760FEA36BE26B0090934202D30025022F19D13A0001992000FFF78FFEA36C4A
:4034000001330DD1636A002B0DD02000243000F0FDFA002807D0002E05D00125356003E0A36C0133A36401250098FFF740FE2800FEBDF0B504000F00002685B00192009352
:40344000FFF71AFEA36B002B2AD039002000E568FFF79BFE009B002B14D1A36B013BA3632368002B02D100F049FB60602369002B12D02000103000F0C9FA01280CD1FFF7B6
:40348000EFFD09E0636AE560002B05D02000243000F0BCFA0028F2D1FFF7FAFD012051E0019D002D03D1FFF7F3FD28004AE0002E02D102A800F0D8FAFFF7EAFD00F038F99F
:4034C000FFF7DAFD636C013301D100236364A36C013301D10023A364FFF7DAFD01A902A800F0CEFA002827D1FFF7C6FDA56BFFF7CFFD002D1AD12368002B06D1FFF7BCFD29
:40350000606800F001FBFFF7C3FD20000199243000F05EFA2000FFF74AFE00F0A7F9002801D001268CE7FFF79BFDFAE72000FFF73EFE00F09BF9F4E72000FFF738FE00F0EE
:4035400095F9002005B0F0BDFEE700000C4B10B51A68040050605A68904205D2986819680431FFF70DFD09E0D86819680431FFF707FD044B1A68944200D21C6010BDC04642
:40358000240B002008010020F7B5009040200E0015000193FFF7A2FC041E00D19EE00A98002802D1A800FFF799FC2063002803D12000FFF7BFFC91E0AD002A00A52101F01C
:4035C00073FE236B043D5D1907239D432F0000231A00F1563432A154F256002A02D00133082BF5D123000022089D3B331A70032D00D90325261DE562E5633000FFF7B1FCD4
:4036000020001830FFF7ADFC04235D1B2461A5616462019A00993800FFF7ECFC099B2060002B00D01C60FFF727FD2E4D2B6901332B612B68002B27D12C602B69012B2DD1C5
:4036400028001430FFF782FC28002830FFF77EFC28003C30FFF77AFC28005030FFF776FC2148FFF773FC2148FFF770FC204F38000C30FFF76BFC38002030FFF767FC1A4B4B
:40368000EB601A4BAB6009E0194B5B6B002B05D12B68089ADB6A9A4200D32C60144BE06A9A6B1C0001329A63DA6B904200D9D86314232A005843143210183100FFF754FC80
:4036C000FFF7E6FC636B0124002B09D02B68089ADB6A9A4204D9FFF7C3FC01E0012464422000FEBD240B0020880B00209C0B0020A40B00201FB500243222039402940194E6
:403700000094230006490748FFF73EFF012806D172B6054B5863054B5C60FFF77DFC1FBD9C68000049350000A40B0020240B0020024A136C013313647047C046A40B0020D5
:4037400010B5FFF799FC034B5C68FFF7A1FC200010BDC046240B002010B5FFF7A3FC034B5C68FFF7A4FC200010BDC046240B0020F7B53B4C236C002B3AD13A4B5A6801325C
:403780005A605A6800920099374A002912D1D9689868D8609960616C01316164D9680968002902D101235B4203E0DB68DB68DB685B6813601368009A00269A4208D3294FE4
:4037C000FB681B68002B1ED10122274B52421A60142224490B68DB6A5343CB185B69012B00D90126A36C002B08D1FEF73FFD05E0A36C00260133A364FEF738FDE36C002B25
:403800002BD0012629E0FB68009ADB68DD686B689A4202D2144A1360DAE72B1D18000193FFF7C6FBAB6A002B03D028001830FFF7BFFBEB6AE26B934200D9E3631422534383
:403840000848291D1430C018FFF78EFB3B68EA6ADB6A9A42B3D30126B1E73000FEBDC046A40B0020240B002008010020F8B5FFF703FC244C236C013B2364236C002B01D093
:4038800000243BE0204D2B69002BF9D0E368002B1ED0A369DE683000371D1830FFF788FB3800FFF785FBF36AE26B934200D9E3631422280053431430C0183900FFF754FBFF
:4038C0002B68F26ADB6A9A42E0D30123E364DDE7A36C002B05D1E46C012CD1D1FFF7C0FB0CE00125A36C002BF5D0FFF741FF002800D0E564A36C013BA364F3E7FFF7C8FB89
:403900002000F8BDA40B0020240B002010B5041E02D1FFF7A5FB0FE0FFF70AFF074A53681068E4180430FFF743FB2000FFF70EFEFFF79CFF0028ECD010BDC046240B0020B5
:40394000204B70B51A6C1D00002A02D00122DA6437E01D4CDA642268236812681B6B9A4204D8206821683431FDF73AFD236814221649186B01F080FC002804D0206821686E
:403980003431FDF72DFD1422EB6B5343E3185B69002B03D1EB6B013BEB63F5E71423E86B4343E218130091691C3349689161994201D14B68936114234343E3189B69DB688C
:4039C000236070BDA40B0020240B00208868000070B50D000B4C21681831FFF7D1FA20680430FFF7E5FA6B1C06D12168064804312030FFF7B9FA03E060682818FFF7A6FD75
:403A000070BDC046240B0020A40B0020F8B5C368DD682F0018373800FFF7CAFA104C114E236C002B0ED12F1D3800FFF7C1FAE86AE36B984200D9E06314233200584314323F
:403A4000101801E020000C303900FFF78DFA3368EA6ADB6A00209A4201D30130E064F8BDA40B0020240B0020034B5B6C0360034B5B6843607047C046A40B0020240B0020D8
:403A800070B50D000400FFF7F7FA0F4B002659682B685A1C13D00D4A2668506C6268864202D0012691420AD2881A0126834206D9521AD3182B602000FFF7D6FF0026FFF78B
:403AC000E7FA300070BDC046240B0020A40B00200122014BDA647047A40B0020002801D1054B18680023016BCA5C98B20133A52AFAD080087047C046240B0020014B18683B
:403B00007047C046240B002070B5041E2AD0164BC26A19681E00C96A8A4223D21968C86A0421091AA161142118004A43143061698218914213D1251D2800FFF739FA3368B4
:403B4000D86A0A4BE062DA6B904200D9D86314235843143630182900FFF706FA02E01B68DB6AE36270BDC046240B0020A40B002070B5041E19D0C36AC26B934215D0051D18
:403B80002800FFF715FA0423E06B1B1AA361074BE062DA6B904200D9D86314234343044829001430C018FFF7DFF970BDA40B0020240B002010B501F033FB03680C2B00D1B0
:403BC000FEE7FEE7030010B580240849084A08686400C3189A1AA24201DC0B6005E001F01FFB0C2303600120404210BD0C010020780C0020F8B500250F49104B01394A1C75
:403C000014D000221F685C689E68A018B24203D0B858A0500432F8E70200DE68141AA64201D020C2FAE710330139E8E701F0FEFAFDF770FBFEE7C04601000000A07E000009
:403C4000002370B50C480D4C0D4D9A002100032B00D8A95801338150302BF6D1FDF7E0F9084B1A68002A00D11A6080220121D20513680B43136070BD00000020B53B0000E1
:403C800000100000C000002010B501F03BF90F230C490D4C0A6824789A43234013430B4A0B6013680A4913600A4B1C682140782419601168214311601A681A6001F026F9FC
:403CC00010BDC04600FF084060F1FF0F08000840FFFFFEFF0400084010B501F013F9C021064A890013680B4380211360044A090613680B43136001F009F910BD08000840B2
:403D00000400084010B5054C2368002B03D1FFF7BBFF01232360FFF7DFFF10BDF40B002010B5040001F0EEF8FF21044A13688B431C43146001F0EAF810BDC0460800084060
:403D400010B501F0DFF8F0220D490F240B6893431A000C4B1B78A34313430B4A0B6013680A4913600A4B1C682140F02419601168E403214311601A681A6001F0C7F810BD1C
:403D800000FF084060F1FF0F08000840FFFFFDFF0400084010B501F0B5F8C021064A890413680B4380211360044A090613680B43136001F0ABF810BD080008400400084033
:403DC00010B5054C2368002B03D1FFF7B9FF01232360FFF7DFFF10BDF80B002010B5040001F090F8044A054B116824040B401C43146001F08BF810BD08000840FFFF80FF5D
:403E00000322064B1A608022054B12061A600422044B1A60044B033A1A607047FC0B00200000104004001040080F1040044A054B11681B680B43802109010B431360704725
:403E400004001040FC0B002010B5054C2379002B03D1FFF7D5FF01232371FFF7E7FF10BDFC0B0020024A034B11680B401360704704001040FCF7FFFF034A044B1168800161
:403E80000B40184310607047080104403FFEFFFF0423044980000A689A43D2B2034013430B60704700010440F7B503210E2000F02FFF42490E2000F01FFF1322404B1A60C9
:403EC000404B1B68002B01DB3F4900E03F49404A022013683F4C0B4313603F4A3F4B80211A60A0223E4B12031A6080223D4B12061A603D4A3D4B49021A603D4A3D4B3E4D18
:403F00001A603E4B3E4E1A680A431A603D4A13680B431360112100233B4A23602B6011603A4A106031683A4A114001221143316000940190DC21374E980087598901394001
:403F40008C46310064461831595C2143052B17D0314CA446844464462160174206D017009F400099009C0968394321603158019C21420AD017009F4029683943296004E026
:403F80008024264FE405214339608021375849000E00BC0501D4802676013940204C5F00002900D00021E1531E4901334E431E49F6120E50062BBDD1F7BDC046BD400000C7
:403FC00020001A4080031A40C0200013C020101300001A4028021A407C00008004001A4018001A401C001A400400080010001A400400040014001A4038021A4000031A4077
:4040000030001A4040031A4018021A40000F1A40FFFFFFDFE86A000080001A4080021A404C0C002010270000340C0020064B10B51A68002A07DB80211A6809060A431A60EC
:404040000A2000F0A9FE10BD00001A4010B5054C2378002B03D1FFF727FF01232370FFF7E5FF10BD010C00208021034A490213680B4313607047C04604001A4010B505287F
:4040800003D9002000F064FE06E0052804D0054B8000C018006801E0034B186880B200B210BDC04680011A4090021A401F231840014B18607047C04620001A40014B1A682B
:4040C0001A60704710021A408021044A10B5136809060B43136000F07DF810BD0000064010B5054C2378002B03D100F023F801232370FFF7E9FF10BD020C0020014B186895
:404100007047C04640030640024B18680F2318407047C046080306400F2204490B681340082BFBD0024B18607047C0460802064040020640144A154B07201A600023144A58
:4041400014491360144A1160144A15490A6015490860154906380B601449086014490A600421144A1360144A1360144A1360144A1360144A1360144A1160144A13601268CD
:40418000134B1A807047C0460B000002000006404000064001000A004800064007000080000306400403064010030640440006400002064004020640880E0640C80E06404C
:4041C000480F0640080F0640C80F0640880F0640040C0020F021054A13688B4360390B431360034B1A88034B1A60704710000140040C0020880F064010B5FFF785FF030089
:404200000020834201D0FFF779FFD822034B92001968114201D000201A6010BDC00F064010B504000134631E1878002802D0FFF773FFF7E710BD70B505000C00002000F0FD
:40424000C1FA2800E1B200F06DFA012000F0BAFA70BD13B50400002000F0B4FAE82301A8013C02210370447000F05CFA13BD000073B5050030200C001600FFF7EAFF0C21F9
:40428000182061430E4B6843CC180E4B0E4DC91824180818641945192378002E01D0DB43DBB201A804210134037043708370C37000F038FAAC42EFD1012000F083FA73BD4C
:4042C00000FDFFFF0CFDFFFF186B0000F8B506000D000024AC4210DA291BFF2900DDFF21CFB23800FFF7B5FF3019390000F01AFA012000F067FAFF34ECE7F8BD13B55023C3
:404300000F245B4220400343102001AA13700B0903430C401000032153709470FFF78BFF13BD07B5812201AB1A70423A1040587002211800FFF77FFF07BD0000F0B5354CF6
:404340008BB00C22210007A800F0A5FF0E2107A8FFF771FF304E3378002B06D16A462C33012168461370FFF766FF2020FFF7D9FF210002220C3104A800F08DFF80270221C2
:4043800004A8FFF758FF00257F422D203C21684300F054FE3B00C2B22B4305A80370EBB2591C39438170991C3943033301713B43082104354270C27042718371C271FFF75E
:4043C0003AFF402DE1D1210002220E3103A800F062FF022103A8FFF72EFF3378002B15D1C82000F0C3FC2E2301A801210370FFF722FFC82000F0BAFC21000222103102A83D
:4044000000F049FF022102A8FFF715FF012333700BB0F0BD066B0000060C002010B500F0C3F9FFF78BFF10BDF0B504000F0085B001930AAB1E780092009B9C4215D23900E6
:404440002000FFF75BFF3D00019B9D420AD203A804210135067046708670C670EDB2FFF735FFF1E70134E4B2E6E705B0F0BD07B50020A023009008220100FFF7D5FF07BD57
:40448000F0B50F00002485B0019002920393019BE6B29819C0B23900FFF730FF029D2878002805D0039A3100FFF7E2FE0135F6E70134022CEBD105B0F0BDF0B5002487B00B
:4044C000039004910592039A6300D318DBB20193231D5B01DBB20293002300936B461F78019B0499D819C0B2FFF708FF059E3378002B29D00025337818003038C2B2092A33
:4045000008D803235843029B002218182818C0B2390011E0022C09D12E2B00D1B033002239001800FFF7A4FE022507E002252E2B04D1002239002020FFF79AFE0135EDB28E
:40454000032DD8D10136D2E7009B01330093022BC4D10134E4B2032CB5D107B0F0BD000010B5040000F0CEFCC021044AA40113688B431C43146000F0C9FC10BD00E400E0B1
:4045800010B50124044B1C60044B18640320FFF7E7FF034B1C6010BD80E100E00000002000E100E0024B1868032318407047C046040004400323024A10681840106070470A
:4045C000100004400423044980000A689A43D2B2034013430B60704700040440024B18680007C00F7047C04604040440402210B5024B1A6000F0AEFB10BDC046C0000020B7
:404600001FB500236A4653728022520000926A4603901372034901336846019300F034F905B000BD580C00207F23044AC00111680B401843C0B210607047C0460000044038
:4046400010B5040000F05EFC044A054B1168A4050B401C43146000F059FC10BD08E400E0FFFF3FFF10B58024054BE4001C60054B98660320FFF7E4FF034B1C6010BDC0462F
:4046800080E100E00000002000E100E010B5040000F038FC044A054B1168A4050B401C43146000F033FC10BD0CE400E0FFFF3FFF10B58024054BE4011C60054B9867032089
:4046C000FFF7E4FF034B1C6010BDC04680E100E00000002000E100E010B500F013FC2021074A13780B431370064B10391A780A431A70054A13780B43137000F007FC10BD02
:4047000091000F4092000F4093000F40042303490A781A42FCD0024B1870704762000F4041000F4070B504004518AC4204D02078FFF7ECFF0134F8E770BD0000202310B5E2
:4047400009490A480A781A4201D00278FAE700F0D9FB0121064B1A780A431A701A788A431A7000F0D3FB10BD63000F4051000F4091000F400F22074B10B51A70FFF7DEFFA0
:40478000054B064A1B78064B1B7800231370054A137010BD81000F4062000F4082000F4063000F4083000F4010B5054C2378002B03D1FFF7DFFF01232370FFF78DFF10BD3D
:4047C000070C0020014B18707047C04672000F40002270B515008B6903600C694E687443A24209D21C68002C03D0A54201D22500036080330132F0E770BD000030B5002824
:4048000002D00C6880340C600C681D68AC4201D39C690C60002414605C68A04211D318690D6801280CD99B69E1016C1A9C4205D2044BC01841434919116002E0146000E0EB
:40484000156030BDFFFFFF0110B5C00900F07EF9431E9841800010BD70B5040002003125FF204034A2420ED008211378584046B24300D8B2002E00DA68400139C9B20029E7
:40488000F5D10132EEE770BDF0B50C00A5B00125002972D0002870D0C768002F6DD043689C460A2B69D80668002E66D06246037AD2015B19534331003F2211404D1EA94154
:4048C000B50949194B438021DB19090203258B4253D86346E6602361037A27002375437A083763750368C1681A40551EAA419B09D31842686360D20153435B18A16123601E
:4049000021003800FFF764FFA3681D68002D33D1227D002A31D003931B6801251E000193019B6168F21A23694B439A421FD2039D8022290004A800F0AEFC013614A80496B3
:40494000FFF78AFF04A913902800FFF77DFF039B226804A99818A369C01AFFF775FF2300050002AA03A93000FFF748FFD8E721003800FFF72DFF00E00025280025B0F0BD23
:40498000F0B51D009B68ADB006900A9302920120131E00D1D7E0069A9B18EA68934200D9D1E0002900D1CEE0029B0791581E302100F0BAFA03000133099300231F0008903B
:4049C0000493019305930A9B0BAA1C680AA92B002000FFF713FF802200210CA800F064FC631C03930C93069B059A0D93089B0799934202D1029B0E930AE030230E93029B11
:404A0000303B0293069B30330693079B303307930E9B0FA81A00009300F03DFC0B99002904D0403140221CA800F035FC01226B680092039A9A4204D90122D31A039A9B186D
:404A400000930026009B039A93423CD8009B039A0CAC934209D0AC69009B2268934204D02B6880349C42F7D312E0002C10D00A9BAA696968981AC00900F0DCFA6668A76847
:404A800089018E423DD30B003F339E4242D938E00136002E0CD134002100019B049A04989A1A0C310CABC919181800F0F4FB00262B7D002B03D01CA8FFF7CEFE1B90009B5E
:404AC00001330093BEE70CA90A98FFF7BDFE2B7D002B09D0002836D10A9B2A680CA99818AB69C01AFFF7B0FE00282CD10A9BAB60059B01330593059A099B934200D962E7BE
:404B000021E0F319994202D83F318B4212D900270126CDE73F2232404032F6190492B14201D8B34201D2802301E0049BFB1801930027B1E73F231E40F31940370193FF1A92
:404B400040230493A8E72DB0F0BD0000F0B50024ADB0089403900994FF2800D9ABE0A14200D1A8E080220CA800F095FB02222300210001940AAD90004059002802D009189B
:404B8000034301920132222AF5D1002902D1002B00D093E0002702977F234D494D4C4E4E4E4A0A916B6025603260C046236806911B0F07920F2B04D022680023120F0A2A30
:404BC00001D02368DBB20893089B0493002B00D07BE000F097F9424A424B116805901960049B04920993089B002B16D13E4A03990A920A9A09040A433C490A922560354A18
:404C00003160C0462168090F0F2903D01168090F0A2901D01368DBB20893089D002D39D1002F37D0802229000CA800F03DFB019B029A0AAF9B00DA51069B079A0A937F2308
:404C40007B602760234B3260C0462268120F0F2A03D01A68120F0A2A01D01D68EDB20895089B002B16D1224A03990A920A9A09040A4320490A922760164A3160C046216849
:404C8000090F0F2903D01168090F0A2901D01368DBB20893099B002B09D1124A049912680A600993099B002B01D0099B0893059800F02CF909E00423089306E0019B012791
:404CC0009B00EA58E950029266E708982DB0F0BDB6D7000008000040040000400400008008010B40080C0020B6D8000005000080B6D90000060000801F2800D901BE034B19
:404D00008000C318186819607047C04640000020F8B504000E00032900D901BE1F2C00D901BE032725003D40BD400635AF40AE4000F0E8F8A408054BA400E4182368BB43C6
:404D40001E43266000F0E2F8F8BDC04600E400E001BE7047034A044913689BB20B4313607047C0460CED00E00400FA0570B5802504002D02064BAC4205D9586800F0B8F857
:404D8000044BE418F6E79868604300F0B1F870BD100100200080FFFF10B5034B1B7B584300F0A6F810BDC04610010020F0B5050087B000F0A7F8EB1E049003932D2B5CD8AE
:404DC000314B1B789D4204D8304B1C78304BE4B21EE0304B1B789D4204D82F4B1C782F4BE4B215E02E4B1B789D4204D82D4B1C782D4BE4B20CE02D4B1B789D4204D82C4BE5
:404E00001C782C4BE4B203E02B4B1C782B4BE4B21B78EA1EDBB20193294B2A4F9A5C059302922F2A04D92A2D02D919263E6008E03F233E681E40029BB34205D2214B029A09
:404E40001A60052000F054F81C4B1F4AED182B780520DBB213601D4B019A1C601C4B1A60FFF79AFF029BB34208D9059B039A05209B5C3B6000F03CF800E001BE049800F015
:404E800045F807B0F0BDC046C0F1FF0FC1F1FF0FC2F1FF0FC3F1FF0FC4F1FF0FC5F1FF0FC6F1FF0FC7F1FF0FC8F1FF0FC9F1FF0FCAF1FF0FCBF1FF0FCCF1FF0FCDF1FF0F7E
:404EC000187D00002CFF0B4028FF0B401CFF0B4020FF0B40044B054A196810400843186019681142FCD1704710020B40080808000230800804D0C0460138FDD1C046C046BF
:404F0000C0467047EFF3108072B6704780F310887047C04602B4714649084900095C49008E4402BC7047C046002243088B4274D303098B425FD3030A8B4244D3030B8B4241
:404F400028D3030C8B420DD3FF22090212BA030C8B4202D31212090265D0030B8B4219D300E0090AC30B8B4201D3CB03C01A5241830B8B4201D38B03C01A5241430B8B42C4
:404F800001D34B03C01A5241030B8B4201D30B03C01A5241C30A8B4201D3CB02C01A5241830A8B4201D38B02C01A5241430A8B4201D34B02C01A5241030A8B4201D30B0205
:404FC000C01A5241CDD2C3098B4201D3CB01C01A524183098B4201D38B01C01A524143098B4201D34B01C01A524103098B4201D30B01C01A5241C3088B4201D3CB00C01AFC
:40500000524183088B4201D38B00C01A524143088B4201D34B00C01A5241411A00D20146524110467047FFE701B5002000F0F0F802BDC0460029F7D076E7704703460B430D
:405040007FD4002243088B4274D303098B425FD3030A8B4244D3030B8B4228D3030C8B420DD3FF22090212BA030C8B4202D31212090265D0030B8B4219D300E0090AC30B39
:405080008B4201D3CB03C01A5241830B8B4201D38B03C01A5241430B8B4201D34B03C01A5241030B8B4201D30B03C01A5241C30A8B4201D3CB02C01A5241830A8B4201D340
:4050C0008B02C01A5241430A8B4201D34B02C01A5241030A8B4201D30B02C01A5241CDD2C3098B4201D3CB01C01A524183098B4201D38B01C01A524143098B4201D34B0142
:40510000C01A524103098B4201D30B01C01A5241C3088B4201D3CB00C01A524183088B4201D38B00C01A524143088B4201D34B00C01A5241411A00D201465241104670475C
:405140005DE0CA0F00D04942031000D34042534000229C4603098B422DD3030A8B4212D3FC22890112BA030A8B420CD3890192118B4208D3890192118B4204D389013AD0C0
:40518000921100E08909C3098B4201D3CB01C01A524183098B4201D38B01C01A524143098B4201D34B01C01A524103098B4201D30B01C01A5241C3088B4201D3CB00C01A31
:4051C000524183088B4201D38B00C01A5241D9D243088B4201D34B00C01A5241411A00D20146634652415B10104601D34042002B00D54942704763465B1000D3404201B581
:40520000002000F005F802BD0029F8D016E770477047C04610B50A22002100F06BF910BD014B18687047C046840100200E4B70B500251E000D4CE41AA410A54204D0AB00AD
:40524000F35898470135F8E702F018FE084B00251E00084CE41AA410A54204D0AB00F35898470135F8E770BD887E0000887E0000887E0000907E000030B50024A24208D094
:40528000035D651C0C5DA34201D0181B02E02C00F4E7002030BD002310B59A4203D0CC5CC4540133F9E710BD03008218934202D019700133FAE770470EB410B59DB002A9F5
:4052C000029008610B48822488604861012040421FABC881084804CBA400006801938C8100F0AEF90023029A13701DB010BC08BC03B01847FFFFFF7F84010020020010B577
:405300001378002B01D00132FAE7CC5CD4540133002CFAD110BD0200C9B21378002B03D0994204D00132F8E71800002900D11000704702780B78002A03D0013001319A42B1
:40534000F7D0D01A7047031C0A7801311A700133002AF9D170470023C25C0133002AFBD1581E704710B502000023006800F001F810BDF0B5041E0CD11468201E09D126E0AB
:405380003778002F0CD00136B842F9D1002B04D02C00651C20780E00F2E71560237015E0002808D1106012E00778BE4207D00130002FF9D11D006B1C2E780800F4E7002ED2
:4053C00002D00021297000E0330013602000F0BDF0B51E00454B87B01B680192029308220B00059003911C7802995D1C09194878104001D02B00F6E72D2C04D19D1C5C78CD
:405400000123009304E000902B2C01D15C789D1C002E02D0102E0AD162E0302C5ED120222B789343582B54D110266C780235009F31007B1E9F412E4BFF183800FFF7FAFDF3
:40544000380004913100FFF76FFD00230322070094461800029A121951780422114201D0303C07E06246114017D03722012900D02032A41AA64210DD5A1C0BD0B84207D81C
:4054800002D1049B9C4203DC70430123201801E001235B422C780135DCE75A1C0BD10098059A431E9841124BC01822231360019B002B0AD117E0009A002A00D04042019A75
:4054C000002A10D0039A002B00D06A1E019B1A6009E03024002EAAD10826A8E70A26A6E7302C9CD0A3E707B0F0BDC04688010020FFFFFF7F10B513000A0001000248006896
:40550000FFF766FF10BDC0468401002030B514009BB005001A00002C04DA8B230360012040421CE0822368469B0083810023009104919C4200D0631E029305930123694611
:405540005B42CB8128001E9B00F07AF8431C01DA8B232B60002C02D00023009A13701BB030BD000007B5009313000A00010002480068FFF7CBFF0EBD84010020F0B58E68AC
:4055800085B007000C00039201939E4243D890238A89DB001A423ED003250969236801985B1A029363695D43EB0F5D19029B6D1001331B18AB4200D91D00530510D5290006
:4055C000380000F037FB061E14D0029A2169FFF762FEA289194B134080221343A38112E02A00380000F086FB061E0CD12169380000F0D4FA0C23402201203B60A38940428E
:405600001343A38117E0029B2661F61826606561019EED1AA560019BB34200D21E0032000399206800F0A5FA0020A3689B1BA36023689E19266005B0F0BDC0467FFBFFFFDE
:40564000F0B59FB0029005938B890F0016001B0610D50B69002B0DD1402100F0EBFA38603861002804D10C23029A01381360D8E040237B61002306AD6B6120336B76103365
:40568000AB7634002378002B03D1A31B049312D003E0252BF9D00134F4E7A31B320039000298FFF76BFF431C00D1B4E06A69049B944663446B612378002B00D1ABE00122CD
:4056C000002352426A6002A95432521801342B60EB60AB601370AB65534E21780522300000F03CFA002807D00123801B83402A68013413432B60EFE72B68DA0604D553226E
:40570000202102A8121811701A0704D553222B2102A81218117022782A2A03D0099B00200A210EE0059A111D12680591002A01DB099204E05242EA60022213432B600134AB
:405740000BE02278303A092A04D84B4301349B180120F6E7002800D0099323782E2B1ED163782A2B0AD1059B02341A1D1B680592002B01DA01235B42079310E000230A2070
:405780001A0001346B6021783039092904D84243013452180123F6E7002B00D00792234E21780322300000F0D9F9002806D04023801B83402A68013413432B6021780622BD
:4057C0001B48661C297600F0C9F9002812D0194B002B06D10722059B073393430833059314E005AB00933A00134B2900029800E000BF07E005AB00933A000F4B29000298A5
:4058000000F08AF80390039B013304D06B69039A9B186B6135E7BB890B985B0601D5012040421FB0F0BDC046497E00004F7E0000537E0000000000007D550000F7B5170074
:4058400001938A680B6900900C00934200DA130022003B6043321278002A01D001333B6023689B0602D53B6802333B60062523681D401ED0230043331B785A1E93412268D1
:4058800092061CD53020E1184331087021005A1C45310978A2184332023311700FE022000123193201990098089EB047431C0ED00135E3683A689B1A9D42F0DBDAE72200C6
:4058C000019943320098089DA847431C02D10120404220E006232068E1683A6803400025042B03D18D1AEB43DB171D40A3682269934201DD9B1AED180027BD420AD0220048
:4059000001231A3201990098089EB047431CDED00137F2E70020FEBDF0B58BB006920A0043320793059004920A7E0C00109B6E2A00D1ABE011D8632A22D009D8002A00D1FC
:40594000B5E0582A00D0C5E045310A70814A4FE0642A1DD0692A1BD0BCE0732A00D1AAE009D86F2A29D0702A00D0B3E0202209680A43226037E0752A1FD0782A33D0A9E05F
:405980000E001A684236111D196013683370A4E021681A68080606D4490604D5111D19600023D55E02E0111D19601568002D3BDA2D23049A6D42137036E021681A680806E7
:4059C00006D4490604D51568111D1960ADB202E0111D196015685F4B227E039308276F2A1DD00A271BE022007821453211705A4A19680392081D226818600D68100602D466
:405A0000500600D5ADB2D30702D520231A4322601027002D03D1202322689A4322602300002243331A7002E00A274A4B03936368A360002B09DB0422216891432160002D14
:405A400005D1049E002B11D07BE0002D79D0049E28003900FFF7EEFA039B013E5B5C280033703900FFF760FA051EF1D1082F09D12368DB0706D563682269934202DC30236E
:405A8000013E3370049B9B1B23612BE009681A68080607D4490605D5111D19601368A28A1A8004E0111D1960136862691A600023049E236116E01A68111D196016680021E1
:405AC0006268300000F04AF8002801D0801B6060636803E0260042363270012323610023049A1370079B09AA00932100069B0598FFF7A4FE431C02D10120404227E0236905
:405B0000320006990598079DA847431CF4D0236800259B070FD4099BE068984217DA180015E022000123193206990598079EB047431CE1D00135E368099A9B1A9D42F0DB4C
:405B4000E9E72600039B42361B7833708EE70BB0F0BDC0465A7E00006B7E0000C9B28218904204D003788B4202D00130F8E70020704710B5884202D98B18984201D30023A5
:405B800005E09B1A013A08D3995C8154FAE7934203D0CC5CC4540133F9E710BD70B50500002944D00C1F2368002B00DAE418280000F0D8F81E4A13681100002B02D1636006
:405BC000146031E0A3420DD92268A018834203D118685B688218226063600C6024E0A24203D813005A68002AF9D11E689819A0420BD12168711858181960824214D110684F
:405C00005268411819605A600EE0A04202D90C232B6009E021686018824203D1106852684118216062605C60280000F09CF870BD100C0020032370B5CD1C9D430835060041
:405C40000C2D01D20C2501E0002D01DBA94202D90C23336048E0300000F084F8234B1C681A002100002913D00B685B1B0DD40B2B02D90B60CC181EE08C4202D16368136071
:405C80001AE04B6863600C0016E00C004968E9E7174C2368002B03D1300000F051F820602900300000F04CF8431C18D00323C41C9C43A0420DD12560300000F054F8200085
:405CC00007220B30231D9043C31A0ED05A42E2500BE0211A300000F033F8431CEBD10C233000336000F03FF8002070BD100C00200C0C0020F8B506000C001500002904D16C
:405D00001100FFF797FF040018E0002A03D1FFF745FF2C0012E000F027F885420ED929003000FFF787FF071E07D021002A00FFF7B2FA21003000FFF731FF3C002000F8BD71
:405D4000002370B5064C050008002360FDF73AFF431C03D12368002B00D02B6070BDC046740C0020704770470B1F1A68101F002A04DA891804390B68D01804387047000038
:405D800000000000000000000000000000000000000000000000000000000000000000000000000000000000000000000000000000000000000000000000000000000000E3
:405DC00000000000000000000000000000000000000000000000000000000000000000000000000000000000000000000000000000000000000000000000000000000000A3
:405E0000040000001A00000001020300BA000000A55200000000000024000000000000005702000000000000D8070000280000000000000000000000000000000000000009
:405E40000000000000000000000000000000000000000000000000000000000000000000000000000000000000000000000000000000000000000000000000000000000022
:405E800000000000000000000000000000000000000000000000000000000000000000000000000000000000000000000000000000000000000000000000000000000000E2
:405EC00000000000000000000000000000000000000000000000000000000000000000000000000000000000000000000000000000000000000000000000000000000000A2
:405F00000000000000000000000000000000000000000000000000000000000000000000000000000000000000000000000000000000000000000000000000000000000061
:405F40000000000000000000000000000000000000000000000000000000000000000000000000000000000000000000000000000000000000000000000000000000000021
:405F800000000000000000000000000000000000000000000000000000000000000000000000000000000000000000000000000000000000000000000000000000000000E1
:405FC00000000000000000000000000000000000000000000000000000000000000000000000000000000000000000000000000000000000000000000000000000000000A1
:406000000000000000000000000000000000000000000000000000000000000000000000000000000000000000000000000000000000000000000000000000000000000060
:406040000000000000000000000000000000000000000000000000000000000000000000000000000000000000000000000000000000000000000000000000000000000020
:406080005549005541525400EB6300002D64000000000000010000000000000038640000000000000200000000000000436400000000000003000000000000001E6400005C
:4060C000000000000000000000000000000000000000000000000000000000004F6400005C640000000000000100000000000000686400000000000002000000000000005E
:4061000083630000000000000300000000000000756400000000000004000000000000007B64000000000000050000000000000086640000000000000600000000000000C5
:4061400094640000000000000700000000000000A06400000000000000000000000000001E640000000000000000000000000000000000000000000000000000000000009A
:40618000B51A0000D061000000000000052000002F68000015200000DA6300002D200000DE630000251500002F680000452000002F6800007D2000002F680000C52000003D
:4061C0002F680000DD2000002F6800000103000200000000E2630000291E00000000000001000000EB630000751C000000000000000000007F630000ED1C00000000000017
:4062000000000000F463000025140000312D00000000000001640000B51A00007462000000000000466300002D1900000000000000000000076400002916000000000000CD
:4062400000000000116400003D15000000000000000000001E6400000000000000000000000000000000000000000000000000000000000000000000236400002514000015
:4062800099210000000000001E640000000000000000000000000000000000000000000000000000000000002533642E253033642573002531642E25303264002530326476
:4062C0002E2531640025303364006D00560055504752414445204D4F44452000526561647920746F20726563760020662F77207570646174652020002043414C49425241B5
:4063000054494F4E20002052656D6F7665204C6561647300DF3A204E657874002041646A2E20766F6C74616765002041646A2E2043757272656E74004100506C656173652A
:40634000207761697400436F6E747261737400DF3A20446F6E650021204F56455254454D502021002120554E444552564F4C54202100DF3A20526573657400BE00BF004DFC
:40638000696E20566F6C74616765004F4E004F4646007365742025640D0A002020202020200057002D2D2D2D7F004168005768004261747465727920495352004C69676871
:4063C00074204C6F61640046756C6C204C6F6164007F20DF204261636B005345540041435400432F43204C6F616400526561646F75747300526573657420546F74616C734D
:4064000000546F6F6C730043616C6962726174650055706772616465204D6F646500455849540042617474204953522E004D61696E20646973702E004C65667420646973E8
:40644000702E00526967687420646973702E0043686F6F73652076616C7565005365742043757272656E74004163742E2043757272656E7400506F77657200526573697359
:4064800074616E636500546F74616C2063757272656E7400546F74616C20706F776572004E6F6E650000000077680000C928000047680000E52800004B6800003D29000024
:4064C00050680000DD28000056680000752500005B680000FB230000606800003526000066680000ED2500006E6800009526000072680000512800007A680000D9250000DF
:40650000806800006D28000077630000852500008568000029280000101010101010101010101010101010101010101010101010101010101010101010101010101010109C
:40654000101010101010101010101010101010101010101010101010101010101010101010101010101010101010101010101010101010101010101010100D070310101034
:4065800010101010100210001010000B1009041010101010101010106D6F64652063630D0A00657272207365742063757272656E74206D75737420626520626574776565BB
:4065C0006E203020616E642025640D0A006F6B0D0A00657272206D6F6E69746F722065787065637473206174206C65617374206F6E6520617267756D656E740D0A00696E4B
:40660000666F20756920737461636B2025640D0A00696E666F20636F6D6D7320737461636B2025640D0A00696E666F206865617020667265652025640D0A00696E666F20F8
:406640006665742025642025640D0A006572722063616C2065787065637473206174206C65617374206F6E6520617267756D656E740D0A006572722063616C3A20756E724B
:4066800065636F676E6973656420737562636F6D6D616E640D0A0063616C204F2025640D0A006461635F6C6F775F6761696E20202020202020253132640D0A006461635F29
:4066C000686967685F6761696E202020202020253132640D0A006461635F6F6666736574202020202020202020253132640D0A006F70616D705F6F66667365745F74726957
:406700006D2020253132640D0A006164635F63757272656E745F6F666673657420253132640D0A006164635F63757272656E745F6761696E202020253132640D0A00616466
:40674000635F766F6C746167655F6F666673657420253132640D0A006164635F766F6C746167655F6761696E202020253132640D0A0076635F726174696F2020202020206B
:406780002020202020253132640D0A007261775F63757272656E745F75736167652020253132640D0A007261775F766F6C746167652020202020202020253132640D0A0035
:4067C00076657273696F6E202568642E2568640D0A006572722075766C6F206D757374206265206265747765656E203020616E642025640D0A0075766C6F2025640D0A005A
:40680000726561642025642025642025642025640D0A0065727220556E6B6E6F776E20636F6D6D616E642027252E3773270D0A006F76657274656D700D0A00756E64657280
:40684000766F6C740D0A006F66660072656164007265736574006D6F64650064756D70006465627567006D6F6E69746F720063616C0076657273696F6E00636C656172009B
:4068800075766C6F00626C00A5A5A5A5A5A5A5A5A5A5A5A5A5A5A5A5A5A5A5A549444C450000000000300F40800000310F40000300400F400004841A0000015300045601E0
:4068C000097804000020601800020A0210180718380284180000041A8000801C0463840000000002000008007F13020F8060080000200000510032061000000EDCBF3DFFF8
:40690000FFFF2200F008040000000000022804040404000000010000C00040011011C00100114001400100000000000000000000000000000000000002000F402C310F408D
:406940003E320F4043330F4006400F4005410F4003420F4007430F4002600F407201810F059407400C800D120E2817151C401D841E021F202554261C27082D012E802F103A
:406980003580368037153DA83E0245A047084E084F0455025680575467106C016D016E406F5574807602C0F0C2F0C470CAD0CCF0CEF0D070D220D840000D01040280048DFD
:4069C00005180763088D09290B560C8D0D041040114F133016801704184219041A081C021D011E0D1F06208D2104246226142780281129102A222B682F8032803380347033
:406A00003578360F370738023AA03BA03E053F045409580459045B045F01840E9403960498049A09A405A60AB40FB820D440D804DB04DF01000404020602071409240D28A8
:406A40000E010FA013081521170818041B201C101D311E011F10242826802D212F223502368037143D283E424C044D204F105C405E025F246011630867026F028010828038
:406A800083208C018D1B904291219240930697309A829B1C9D10A114A201A354A520A680B140B504B721C0F4C2F6C474CAF0CCF0CEF0D6F0D81EEA10EE2055205F2066080E
:406AC000D440D620D8808120A520B320B608E22072207708DC0356208E208F089E209F08D402E4020101100100140000001400000002000000020000001400000014000008
:406B00000403120270053860AB4412A0C86654484025386538602FAF0000000000000000000000000000000000000000000000000000000000FEFE0000000000000000004E
:406B400000333300000000000000003E3E00003E3E000000000000000000000000000000003030F07E37B0F83F31300003233F0703333F03030300000070F88C8CFF0C0CE9
:406B8000180000000018303030FF31311F0E00003C7E4242FEBC80404040000000010101001E3F21213F1E00000080DC7EE6C60606808000000F1F383031330F3E3723001D
:406BC00000000000003E3E000000000000000000000000000000000000000000E0FC0F010000000000000000073FF08000000000000000010FFCE00000000000000000800B
:406C0000F03F0700000000000000844830FE3048840000000000000000010000000000000080808080F8F8808080800000010101011F1F01010101000000000000000000F1
:406C400000000000000000C0783800000000000000000000000000000000000000000003030303030000000000000000000000000000000000000000383800000000000025
:406C80000000000000C0F03C0E0200000080E0781F0701000000000000F0FC0E06C6C60EFCF0000000071F38303030381F07000000000C0C06FEFE0000000000000030308D
:406CC000303F3F3030300000000C0606060606CEFC7800000030383C3637333130300000000C06C6C6C6C6EEFC38000000183030303030391F0F0000000080E0300CFEFEC2
:406D0000000000000007070606063F3F060600000000FE7E666666E6C680000000183030303030381F0F000000F0FC9CCEC6C6C68C00000000071F39303030391F0F0000D7
:406D4000000606060606E6FE3E060000000000203C1F0700000000000038FCC6C6C6C6C6FC380000000F1F39303030391F0F00000078FCCE868686CEFCF0000000001831D0
:406D80003131391C0F07000000000000E0E000000000000000000000383800000000000000000000E0E0000000000000000000C0783800000000000000008080C0406060E6
:406DC000203000000001030206040C0C08180000006060606060606060600000000606060606060606060000003020606040C080800000000018080C0C040602030100000D
:406E000000000C0686C6E67E3C00000000000000373700000000000000F0FC0E03F1F90BFEFC000000071F386043474407070000000000E0FE1EFEE00000000000303E0F09
:406E40000706070F3E30000000FEFEC6C6C6C6C6FC380000003F3F30303030391F0F000000F0F81C0E060606060C000000070F1C383030303018000000FEFE0606060E1C1E
:406E8000F8F00000003F3F303030381C0F07000000FEFEC6C6C6C6C6C6C60000003F3F30303030303030000000FEFEC6C6C6C6C6C6060000003F3F0000000000000000001A
:406EC00000F0F81C0E06C6C6C6CC000000070F1C303030301F1F000000FEFEC0C0C0C0C0FEFE0000003F3F00000000003F3F00000000060606FEFE060606000000003030F8
:406F0000303F3F3030300000000000060606FEFE000000000018303030301F0F0000000000FEFEC0E0F0180C06020000003F3F000003071E3830000000FEFE00000000003D
:406F400000000000003F3F30303030303030000000FEFE1EF080F01EFEFE0000003F3F00000100003F3F000000FEFE0E78C00000FEFE0000003F3F0000010F383F3F000030
:406F800000F0FC0E0606060EFCF0000000071F38303030381F07000000FEFE86868686CEFC780000003F3F01010101010000000000F0FC0E0606060EFCF0000000071F3842
:406FC000303070F8DF07000000FEFE86868686CEFC780000003F3F01010101071E3C200000387CCEC6C6C6868C00000000183030303030391F0F00000006060606FEFE061B
:407000000606060000000000003F3F000000000000FEFE0000000000FEFE0000000F1F38303030381F0F000000067EF8C000C0F87E060000000000033F3C3F030000000034
:407040000EFEF000E060E000F0FE0E0000073F3C0700073C3F07000000020E1EF8E0F81E060200000020383E0F030F3E3820000000020E1E78E0E0781E0E02000000000069
:40708000003F3F00000000000006060686C6F63E1E06000000303C3E373130303030000000000000FFFF03030000000000000000FFFFC0C00000000000020E3CF0C000004C
:4070C000000000000000000001071F78E08000000000000303FFFF0000000000000000C0C0FFFF0000000000002030180C06060C183020000000000000000000000000001B
:40710000000000000000000000000000C0C0C0C0C0C0C0C0C0C0C0000000010306040000000000000000000000000000000000000000603030303070E0C00000001E3E3342
:407140003333331B3F3F000000FFFF6030303070E0C00000003F3F18303030381F0F00000080E060303030306000000000071F18303030301800000000C0E070303030605D
:40718000FFFF0000000F1F38303030183F3F00000080E07030303070E0C0000000071F1B33333333331B000000303030FEFF333333000000000000003F3F000000000000D6
:4071C00000F0F81C0C0C0C18FCFC0000000367CECCCCCCE67F3F000000FFFF6020303070E0C00000003F3F00000000003F3F00000000303030F3F300000000000000303057
:40720000303F3F30303000000000303030F3F3000000000000303030301F0F000000000000FFFF0080C0E07030100000003F3F0303071E383020000000030303FFFF0000A6
