:020000000A28CC
:10000800FE00030ECD000A08CE0004290B2811308B
:10001800C001C101C201C301C401C501C601C700B5
:100028000030C801C901CA01CB01CC0183011C28D9
:100038003921B9208D148B170B1764000B1D21284B
:100048000B11023021217F30D3004F085302D40016
:1000580050090318013ED5005408C3005508C400D0
:10006800401938284015B4204330AE20A220C700DC
:100078005408C8004208803AFF0080307F02031D00
:10008800472801304102031C4B28C41B712841300A
:100098008400840A801F5B284408803AFF0080306F
:1000A8007F02031D592801304302031871284208B2
:1000B800803AFF0084307F02031D6428E03041024B
:1000C80003187A284208803AFF007B307F02031D1C
:1000D8006F2850304102031C7A284330AE20D400E8
:1000E8005308C1070318C20A5408C2070130403E2A
:1000F800AE20D4000430FF00540DD40CD30CFF0BF9
:1001080080285308C7070318C80A5408C8074508B1
:100118004302D3004608031C460A4402A2202F3E8D
:10012800D50054080318013ED6005508C707031820
:10013800C80A5608C807B420B9202128D400540D8D
:10014800D40CD30C540DD40CD30C540DD40CD30CA8
:100158005308080084000008D300840A0008080037
:100168004408C6004308C50008004018B928FE2006
:10017800031DC0284F304702031CC5284E30C70056
:10018800C801FE20031DCA28103047020318CF28D3
:100198001030C700C801473084000008CF00840A27
:1001A8000008D000EF20CB004708F720CC00B03083
:1001B800D100D2014708D1024808031CD203D20259
:1001C8005208D0005108CF00EF20C9005108F7208D
:1001D800CA00401408000310D00CCF0C0310D00C38
:1001E800CF0C4F0808000339CF00CF0CCF0C4F0CB1
:1001F800C03908004808803AFF0080307F020800B4
:100208008D188C1C1A298C10C0180F29C014D030D6
:100218009900A030B900401C1A294B0895004C08D9
:100228009400490898004A08970040104E088A0030
:100238004D0E8300FE0E7E0E0900D200D100D10DB6
:10024800D10D1F085106E33951069F001F140630CF
:10025800D100D10B2D2900009F149F1C3529640063
:1002680031291E08CF00D0010800542170217521C2
:1002780063216A2178215C214B2142290E08C0396B
:1002880012388E0064308100D7000B110800A030AE
:10029800BA00BB011030BC00BD018030B9000800B5
:1002A8008701043086000730880089018E1708000E
:1002B8002730920091018C100430930008008030A0
:1002C8009600043095008030940008009030990022
:1002D800273098009701080079309000A601BF01E7
:0E02E80008000A30B0000800A9309F0008008E
:02400E009E3ED4
:00000001FF
