:400000000010002011000000310200003102000010B500F0E1F900F013F9000010B572B68024E40022000021264800F018FF22000021254800F013FFEE22244B12021A60A2
:400040009922234B06211A609923224A1B041360214A224C1360224A182013780B4313708022204B1A60C0221F4B12041A60D8221E4B12011A600A221D4B1A601D4A1E4B7F
:400080001A6002221D4B1A6080222368D2021343236000F0F7FD2268194B1A4913402360194A1A4B1A601322194B1A608022194B12061A600023184A23601160174A1360A1
:4000C00010BDC04600300F4000400F400C0001401000014000500F4030500F4000010B4000700F4000000440080004400803044000040440310400000804044018040440FC
:40010000FFFFFBFF10000C800600008004010B400802024008010B40000102400C020B4010B5064C2378002B07D1054B002B02D0044800E000BF0123237010BD5001002037
:4001400000000000780E0000084B10B5002B03D00749084800E000BF07480368002B00D110BD064B002BFBD09847F9E70000000054010020780E0000C80000200000000038
:4001800010B500F0ABFB10BD10B500F0B5FB10BD70B5002306000D00140023802388AB4205D2F05C00F0C6FB23880133F5E7002070BD0000F7B5114C07005C430023150078
:4001C0001026019113802B88019A934214D2002C12DB00F0A7FB002809D02B8800265A1C2A80FC1800F028FC2070044CEBE70A2000F03EFD0A3CE6E73000FEBD1027000092
:4002000010B50A4C2368402B01D100F029FB012000F018FD00F02AFC8023002800D14023236000F01DFB002010BDC046C000002010B500F0DFFD03680C2B00D1FEE7FEE760
:40024000F8B500250F49104B01394A1C14D000221F685C689E68A018B24203D0B858A0500432F8E70200DE68141AA64201D020C2FAE710330139E8E700F0C2FDFFF7C0FFCC
:40028000FEE7C04601000000D80E0000002370B50C480D4C0D4D9A002100032B00D8A95801338150302BF6D1FFF7B8FE084B1A68002A00D11A6080220121D20513680B43DA
:4002C000136070BD000000203102000000000000C0000020004700000A00F0B50C4B8C1A075D08241D0001267D405B08354202D0084D6B409BB2013CE4B27F08002CF1D166
:40030000013A92B2002AEAD1D84340BA80B2F0BDFFFF00000884FFFF00234118002A05D0013A881800781B18DBB2F7E718007047013810B50B2830D8C901494200F046FDE1
:4003400006080A0C0E10141216191B20164B13E0164B16E0164B0AE0164B12E0164B0BE0164B09E0164B02E0164B00E0164BC91814E0164B05E0164BC9180878C0B211E0A7
:40038000144BC9180A7848788C780002230418430300C8781343000603E000210B7848780002184310BDC046C07F0000C17F0000C57F0000C97F0000D07F0000D17F000073
:4003C000D67F0000D27F0000D47F0000D87F0000DC7F0000E07F00000C4B10B51A68102313400B4A00D113601368802B0DD10024022021001460FFF79BFFA04205D02100EF
:400400000220FFF795FFFFF765FF10BD00030B40C0000020F8B5010006000320FFF788FF040031000420FFF783FF0134E4012718002431000320FFF77BFF25000130C0013E
:40044000B84209D203785A1ED2B2FD2A00D80125E418E4B20130F3E731000120FFF768FF6442E4B20623844203D16A4255416D422B401800F8BD0000F0B5C24CA544FFF705
:400480007FFE62B600231D000093962108AEFF2302AA49003000FFF78DFE0028F5D102AB1988062926D932780423012A27D17788FA1D8A4200D990E1962149008A4200D970
:4004C0008BE1F2199279172A19D1F91889B2002902D03000FFF700FFF3195A791B7912021A43082382420AD13EE0012D00D071E1012F01D0042302E00C23002C01D000246D
:400500000CE02000FFF786FF0C23002806D138229D4909A800F09AFC2300383402AA971C00200122211D737089B2230A3C803270B470F370814202D03000FFF7CDFE9EAB21
:40054000924A1B199A181070914A000A9A181070904A07349B181722A1B21A70300096233A00FFF715FE90E7737834791800313814282FD9884A1468002C25D0012D25D1B1
:4005800002AAD78005AF1371002109AB0C223800049300F064FC09ABBB60390003A8A0472623BC88FF339C4204D9BB681A0009AB9A4207D0BA68002A01D1002C02D13B6866
:4005C000DBB2ABE70E239AE70523A7E7002505232C00A3E700F004FC15005200CEFF6F009C00CEFFA100B6006F00C600E60089FFCEFFCEFFCEFFCEFFCEFFCEFFCEFFCEFF13
:400600002300012D00D0E5E0002F00D072E73800FFF700FF4342434133713B00D8E7012D00D0D7E080233A009A43032A00D061E702AB5A7F9B7F1B0213430193032F06D045
:400640001F2102ABFA1EC91853A800F0FFFB002C00D0B4E0019BFF2B00D9B2E0DB01190053AA8031D21A1878D45C844200D0AAE001338B42F7D100231C004FE7012D00D043
:40068000A8E0012F00D035E7002C00D032E7434B1B681B68DA0BD2B2DB09DBB2002A01D080235B0033711B0A7371FF23B37100230424F37132E7342B0DD1012D00D089E0BB
:4006C000032F00D016E78022002153A800F0C7FB8023009304E0012D7CD1022F00D809E71F21009A53AB981802ABFA1EC91800F0ADFB009BFF18BFB2832F66D102AB9F7F60
:40070000587F3F02074300970125FF2F37D866E0012D5FD100230093B7E6012D5AD1009BFC1896235B009C4257DC53AA9446009B3A006344180009A900F088FBA3B20093C1
:400740000023DCE6002F00D0D4E605AB1900144A012511CA11C109AA03CB03C2082400973B00DBE6012D35D1032F00D0C2E602AB5A7F9B7F1B0213430193FF2B4CD90A23DB
:40078000BDE6C04684FDFFFFC07F0000ACFDFFFFADFDFFFFAEFDFFFF6C010020CC0000207C0E00000020FFF735FE002802D18022294B1A60FFF7E8FC00F038FA9AE609235B
:4007C0009DE60A23AAE6022399E6002301250093033394E600250423FAE603238FE6009B200218181D4B80B21B681A68D3099BB2520601D001339BB2984204D2002301256A
:4008000000930A337BE653A900F038F90028F5D100900125030072E6019B2102C918C90180220020FFF778FD0700002C0ED1019BFF2B0BD121000520FFF77AFD21003F1AF3
:400840000620FFF775FDFFB23F1AFFB27F4237710023012462E6C046C0000020CC00002070B50020FFF7D6FD431E98410624134D40422B6804401A68C021C03A0020FFF7C6
:400880004BFD6B681B78181AC0B2834203D12B681B68002B02D1002000F0C6F9084B19681A00402901D0002C03D000231360FFF7E3FD80221A6000F0B9F970BDCC00002000
:4008C000C00000208021044A10B5136809060B43136000F08BF810BD0000064010B5054C2378002B03D100F033F801232370FFF7E9FF10BD7001002010B500F089F8044A51
:4009000013685B005B0813600022024B1A6010BD00000640880F0640014B18687047C04640030640024B18680F2318407047C046080306400F2204490B681340082BFBD079
:40094000024B18607047C0460802064040020640134A144B07201A600023134A13491360134A1160134A14490A6014490860144906380B601349086013490A60134A13605A
:40098000134A1360134A1360134A1360134A1360134A1360134A13601268134B1A8070470B000002000006404000064001000A00480006400700008000030640040306409F
:4009C00010030640440006400002064004020640880E0640C80E0640480F0640080F0640C80F0640880F064072010020F021054A13688B4360390B431360034B1A88034BC0
:400A00001A6070471000014072010020880F0640F021064A13688B431360054B1A68E423DB001340034A13807047C04610000140880F06407201002010B5FFF773FF0028ED
:400A400002D0FFF769FF01E0064B1868D821064A890013681160D8221B0292021340184310BDC04640030640C00F0640024B18680007C00F7047C04604040440F0B5002497
:400A8000ADB0089403900994FF2800D9ABE0A14200D1A8E080220CA800F0D8F902222300210001940AAD90004059002802D00918034301920132222AF5D1002902D1002BF2
:400AC00000D093E0002702977F234D494D4C4E4E4E4A0A916B6025603260C046236806911B0F07920F2B04D022680023120F0A2A01D02368DBB20893089B0493002B00D0BD
:400B00007BE000F05BF9424A424B116805901960049B04920993089B002B16D13E4A03990A920A9A09040A433C490A922560354A3160C0462168090F0F2903D01168090F39
:400B40000A2901D01368DBB20893089D002D39D1002F37D0802229000CA800F080F9019B029A0AAF9B00DA51069B079A0A937F237B602760234B3260C0462268120F0F2A50
:400B800003D01A68120F0A2A01D01D68EDB20895089B002B16D1224A03990A920A9A09040A4320490A922760164A3160C0462168090F0F2903D01168090F0A2901D0136863
:400BC000DBB20893099B002B09D1124A049912680A600993099B002B01D0099B0893059800F0F0F809E00423089306E0019B01279B00EA58E950029266E708982DB0F0BDE1
:400C0000B6D7000008000040040000400400008008010B4074010020B6D8000005000080B6D900000600008001BE7047034A044913689BB20B4313607047C0460CED00E0D7
:400C40000400FA0570B5802504002D02064BAC4205D9586800F0A8F8044BE418F6E79868604300F0A1F870BDD40000200080FFFF10B5034B1B7B584300F096F810BDC0467F
:400C8000D4000020F0B5050087B000F097F8EB1E049003932D2B5BD8304B1B789D4204D82F4B1C782F4BE4B21EE02F4B1B789D4204D82E4B1C782E4BE4B215E02D4B1B7859
:400CC0009D4204D82C4B1C782C4BE4B20CE02C4B1B789D4204D82B4B1C782B4BE4B203E02A4B1C782A4BE4B21B78EA1EDBB20193284B294F9A5C059302922F2A04D92A2D0D
:400D000002D919263E6008E03F233E681E40029BB34205D2204B029A1A60052000F044F81B4B1E4AED182B780520DBB213601C4B019A1C601B4B1A60FFF79AFF029BB34258
:400D400006D9059B039A05209B5C3B6000F02CF8049800F037F807B0F0BDC046C0F1FF0FC1F1FF0FC2F1FF0FC3F1FF0FC4F1FF0FC5F1FF0FC6F1FF0FC7F1FF0FC8F1FF0F8C
:400D8000C9F1FF0FCAF1FF0FCBF1FF0FCCF1FF0FCDF1FF0F840E00002CFF0B4028FF0B401CFF0B4020FF0B400230800804D0C0460138FDD1C046C046C0467047EFF3108021
:400DC00072B6704780F310887047C04602B4714649084900095C49008E4402BC7047C04603B47146490840004900095E49008E4403BC7047014B18687047C0464801002018
:400E00000E4B70B500251E000D4CE41AA410A54204D0AB00F35898470135F8E700F04AF8084B00251E00084CE41AA410A54204D0AB00F35898470135F8E770BDC00E0000D3
:400E4000C00E0000C00E0000C80E0000002310B59A4203D0CC5CC4540133F9E710BD03008218934202D019700133FAE770470000800F000052000000000000009311C8045E
:400E8000113C0101030405060708090A0B0C0E0F101112131415161718191B1C1D1E1F2021222325262728292A2B2E2F3031323334354300F8B5C046F8BC08BC9E467047EA
:400EC000490100008D020000F8B5C046F8BC08BC9E46704721010000E80E0000C8000020880000002800000000000000700E0000740E0000010000000000E02EC05D000077
:400F00001800000000366E010000000000000000000000000000000000000000000000000000000000000000B20E0000000000000000000000000000000000000000000034
:400F400000000000000000000000000000000000000000000000000000000000000000000000000000000000E8000020000000000000000000000000000000000000000069
:400F80000000000000000000000000000000000000000000000000000000000000000000000000000000000000000000000000000000000000000000000000000000000031
:400FC00000000000000000000000000000000000000000000000000000000000000000000000000000000000000000000000000000000000000000000000000000000000F1
:4010000000000000000000000000000000000000000000000000000000000000000000000000000000000000000000000000000000000000000000000000000000000000B0
:401040000000000000000000000000000000000000000000000000000000000000000000000000000000000000000000000000000000000000000000000000000000000070
:407FC000000000000000000000000000000000000000000001010000000000000000000000000000000000000000000000000000000000000000000000000000000000007F
:0200000490303A
:0200000005C039
:0200000490402A
:200000000000000000000000000000000000000000000000000000000000000000000000E0
:0200000490501A
:0C000000000204C81193110104CD175335
:0200000490600A
:0100000001FE
:00000001FF